{
  "_format": "hh-sol-artifact-1",
  "contractName": "TradingPool",
  "sourceName": "contracts/protocol/Trading/TradingPool.sol",
  "abi": [
    {
      "inputs": [
        {
          "internalType": "contract IAddressesProvider",
          "name": "addressProvider",
          "type": "address"
        },
        {
          "internalType": "address",
          "name": "owner",
          "type": "address"
        },
        {
          "internalType": "contract IERC20",
          "name": "token",
          "type": "address"
        },
        {
          "internalType": "address",
          "name": "nft",
          "type": "address"
        },
        {
          "internalType": "string",
          "name": "name",
          "type": "string"
        },
        {
          "internalType": "string",
          "name": "symbol",
          "type": "string"
        }
      ],
      "stateMutability": "nonpayable",
      "type": "constructor"
    },
    {
      "anonymous": false,
      "inputs": [
        {
          "indexed": true,
          "internalType": "address",
          "name": "user",
          "type": "address"
        },
        {
          "indexed": true,
          "internalType": "uint256",
          "name": "id",
          "type": "uint256"
        },
        {
          "indexed": false,
          "internalType": "uint256[]",
          "name": "nftIds",
          "type": "uint256[]"
        },
        {
          "indexed": false,
          "internalType": "uint256",
          "name": "tokenAmount",
          "type": "uint256"
        },
        {
          "indexed": false,
          "internalType": "uint256",
          "name": "spotPrice",
          "type": "uint256"
        },
        {
          "indexed": false,
          "internalType": "address",
          "name": "curve",
          "type": "address"
        },
        {
          "indexed": false,
          "internalType": "uint256",
          "name": "delta",
          "type": "uint256"
        },
        {
          "indexed": false,
          "internalType": "uint256",
          "name": "fee",
          "type": "uint256"
        }
      ],
      "name": "AddLiquidity",
      "type": "event"
    },
    {
      "anonymous": false,
      "inputs": [
        {
          "indexed": true,
          "internalType": "address",
          "name": "owner",
          "type": "address"
        },
        {
          "indexed": true,
          "internalType": "address",
          "name": "approved",
          "type": "address"
        },
        {
          "indexed": true,
          "internalType": "uint256",
          "name": "tokenId",
          "type": "uint256"
        }
      ],
      "name": "Approval",
      "type": "event"
    },
    {
      "anonymous": false,
      "inputs": [
        {
          "indexed": true,
          "internalType": "address",
          "name": "owner",
          "type": "address"
        },
        {
          "indexed": true,
          "internalType": "address",
          "name": "operator",
          "type": "address"
        },
        {
          "indexed": false,
          "internalType": "bool",
          "name": "approved",
          "type": "bool"
        }
      ],
      "name": "ApprovalForAll",
      "type": "event"
    },
    {
      "anonymous": false,
      "inputs": [
        {
          "indexed": true,
          "internalType": "address",
          "name": "user",
          "type": "address"
        },
        {
          "indexed": false,
          "internalType": "uint256[]",
          "name": "nftIds",
          "type": "uint256[]"
        },
        {
          "indexed": false,
          "internalType": "uint256",
          "name": "price",
          "type": "uint256"
        }
      ],
      "name": "Buy",
      "type": "event"
    },
    {
      "anonymous": false,
      "inputs": [
        {
          "indexed": true,
          "internalType": "address",
          "name": "previousOwner",
          "type": "address"
        },
        {
          "indexed": true,
          "internalType": "address",
          "name": "newOwner",
          "type": "address"
        }
      ],
      "name": "OwnershipTransferred",
      "type": "event"
    },
    {
      "anonymous": false,
      "inputs": [
        {
          "indexed": true,
          "internalType": "address",
          "name": "user",
          "type": "address"
        },
        {
          "indexed": true,
          "internalType": "uint256",
          "name": "lpId",
          "type": "uint256"
        }
      ],
      "name": "RemoveLiquidity",
      "type": "event"
    },
    {
      "anonymous": false,
      "inputs": [
        {
          "indexed": true,
          "internalType": "address",
          "name": "user",
          "type": "address"
        },
        {
          "indexed": false,
          "internalType": "uint256[]",
          "name": "nftIds",
          "type": "uint256[]"
        },
        {
          "indexed": false,
          "internalType": "uint256",
          "name": "price",
          "type": "uint256"
        }
      ],
      "name": "Sell",
      "type": "event"
    },
    {
      "anonymous": false,
      "inputs": [
        {
          "indexed": true,
          "internalType": "address",
          "name": "user",
          "type": "address"
        },
        {
          "indexed": true,
          "internalType": "uint256",
          "name": "lpId",
          "type": "uint256"
        },
        {
          "indexed": false,
          "internalType": "uint256",
          "name": "fee",
          "type": "uint256"
        }
      ],
      "name": "SetLpFee",
      "type": "event"
    },
    {
      "anonymous": false,
      "inputs": [
        {
          "indexed": true,
          "internalType": "address",
          "name": "user",
          "type": "address"
        },
        {
          "indexed": true,
          "internalType": "uint256",
          "name": "lpId",
          "type": "uint256"
        },
        {
          "indexed": false,
          "internalType": "address",
          "name": "curve",
          "type": "address"
        },
        {
          "indexed": false,
          "internalType": "uint256",
          "name": "delta",
          "type": "uint256"
        }
      ],
      "name": "SetLpPricingCurve",
      "type": "event"
    },
    {
      "anonymous": false,
      "inputs": [
        {
          "indexed": true,
          "internalType": "address",
          "name": "user",
          "type": "address"
        },
        {
          "indexed": true,
          "internalType": "uint256",
          "name": "lpId",
          "type": "uint256"
        },
        {
          "indexed": false,
          "internalType": "uint256",
          "name": "spotPrice",
          "type": "uint256"
        }
      ],
      "name": "SetLpSpotPrice",
      "type": "event"
    },
    {
      "anonymous": false,
      "inputs": [
        {
          "indexed": true,
          "internalType": "address",
          "name": "from",
          "type": "address"
        },
        {
          "indexed": true,
          "internalType": "address",
          "name": "to",
          "type": "address"
        },
        {
          "indexed": true,
          "internalType": "uint256",
          "name": "tokenId",
          "type": "uint256"
        }
      ],
      "name": "Transfer",
      "type": "event"
    },
    {
      "inputs": [],
      "name": "MAX_FEE",
      "outputs": [
        {
          "internalType": "uint256",
          "name": "",
          "type": "uint256"
        }
      ],
      "stateMutability": "view",
      "type": "function"
    },
    {
      "inputs": [
        {
          "internalType": "address",
          "name": "receiver",
          "type": "address"
        },
        {
          "internalType": "uint256[]",
          "name": "nftIds",
          "type": "uint256[]"
        },
        {
          "internalType": "uint256",
          "name": "tokenAmount",
          "type": "uint256"
        },
        {
          "internalType": "uint256",
          "name": "spotPrice",
          "type": "uint256"
        },
        {
          "internalType": "address",
          "name": "curve",
          "type": "address"
        },
        {
          "internalType": "uint256",
          "name": "delta",
          "type": "uint256"
        },
        {
          "internalType": "uint256",
          "name": "fee",
          "type": "uint256"
        }
      ],
      "name": "addLiquidity",
      "outputs": [],
      "stateMutability": "nonpayable",
      "type": "function"
    },
    {
      "inputs": [
        {
          "internalType": "address",
          "name": "to",
          "type": "address"
        },
        {
          "internalType": "uint256",
          "name": "tokenId",
          "type": "uint256"
        }
      ],
      "name": "approve",
      "outputs": [],
      "stateMutability": "nonpayable",
      "type": "function"
    },
    {
      "inputs": [
        {
          "internalType": "address",
          "name": "owner",
          "type": "address"
        }
      ],
      "name": "balanceOf",
      "outputs": [
        {
          "internalType": "uint256",
          "name": "",
          "type": "uint256"
        }
      ],
      "stateMutability": "view",
      "type": "function"
    },
    {
      "inputs": [
        {
          "internalType": "address",
          "name": "onBehalfOf",
          "type": "address"
        },
        {
          "internalType": "uint256[]",
          "name": "nftIds",
          "type": "uint256[]"
        },
        {
          "internalType": "uint256",
          "name": "maximumPrice",
          "type": "uint256"
        }
      ],
      "name": "buy",
      "outputs": [
        {
          "internalType": "uint256",
          "name": "",
          "type": "uint256"
        }
      ],
      "stateMutability": "nonpayable",
      "type": "function"
    },
    {
      "inputs": [
        {
          "internalType": "uint256",
          "name": "tokenId",
          "type": "uint256"
        }
      ],
      "name": "getApproved",
      "outputs": [
        {
          "internalType": "address",
          "name": "",
          "type": "address"
        }
      ],
      "stateMutability": "view",
      "type": "function"
    },
    {
      "inputs": [
        {
          "internalType": "uint256",
          "name": "lpId",
          "type": "uint256"
        }
      ],
      "name": "getLP",
      "outputs": [
        {
          "components": [
            {
              "internalType": "uint256[]",
              "name": "nftIds",
              "type": "uint256[]"
            },
            {
              "internalType": "uint256",
              "name": "tokenAmount",
              "type": "uint256"
            },
            {
              "internalType": "uint256",
              "name": "spotPrice",
              "type": "uint256"
            },
            {
              "internalType": "address",
              "name": "curve",
              "type": "address"
            },
            {
              "internalType": "uint256",
              "name": "delta",
              "type": "uint256"
            },
            {
              "internalType": "uint256",
              "name": "fee",
              "type": "uint256"
            }
          ],
          "internalType": "struct DataTypes.LiquidityPair",
          "name": "",
          "type": "tuple"
        }
      ],
      "stateMutability": "view",
      "type": "function"
    },
    {
      "inputs": [],
      "name": "getNFT",
      "outputs": [
        {
          "internalType": "address",
          "name": "",
          "type": "address"
        }
      ],
      "stateMutability": "view",
      "type": "function"
    },
    {
      "inputs": [],
      "name": "getToken",
      "outputs": [
        {
          "internalType": "address",
          "name": "",
          "type": "address"
        }
      ],
      "stateMutability": "view",
      "type": "function"
    },
    {
      "inputs": [
        {
          "internalType": "address",
          "name": "owner",
          "type": "address"
        },
        {
          "internalType": "address",
          "name": "operator",
          "type": "address"
        }
      ],
      "name": "isApprovedForAll",
      "outputs": [
        {
          "internalType": "bool",
          "name": "",
          "type": "bool"
        }
      ],
      "stateMutability": "view",
      "type": "function"
    },
    {
      "inputs": [],
      "name": "name",
      "outputs": [
        {
          "internalType": "string",
          "name": "",
          "type": "string"
        }
      ],
      "stateMutability": "view",
      "type": "function"
    },
    {
      "inputs": [
        {
          "internalType": "uint256",
          "name": "nftId",
          "type": "uint256"
        }
      ],
      "name": "nftToLp",
      "outputs": [
        {
          "internalType": "uint256",
          "name": "",
          "type": "uint256"
        }
      ],
      "stateMutability": "view",
      "type": "function"
    },
    {
      "inputs": [
        {
          "internalType": "address",
          "name": "",
          "type": "address"
        },
        {
          "internalType": "address",
          "name": "",
          "type": "address"
        },
        {
          "internalType": "uint256",
          "name": "",
          "type": "uint256"
        },
        {
          "internalType": "bytes",
          "name": "",
          "type": "bytes"
        }
      ],
      "name": "onERC721Received",
      "outputs": [
        {
          "internalType": "bytes4",
          "name": "",
          "type": "bytes4"
        }
      ],
      "stateMutability": "nonpayable",
      "type": "function"
    },
    {
      "inputs": [],
      "name": "owner",
      "outputs": [
        {
          "internalType": "address",
          "name": "",
          "type": "address"
        }
      ],
      "stateMutability": "view",
      "type": "function"
    },
    {
      "inputs": [
        {
          "internalType": "uint256",
          "name": "tokenId",
          "type": "uint256"
        }
      ],
      "name": "ownerOf",
      "outputs": [
        {
          "internalType": "address",
          "name": "",
          "type": "address"
        }
      ],
      "stateMutability": "view",
      "type": "function"
    },
    {
      "inputs": [
        {
          "internalType": "uint256",
          "name": "lpId",
          "type": "uint256"
        }
      ],
      "name": "removeLiquidity",
      "outputs": [],
      "stateMutability": "nonpayable",
      "type": "function"
    },
    {
      "inputs": [
        {
          "internalType": "uint256[]",
          "name": "lpIds",
          "type": "uint256[]"
        }
      ],
      "name": "removeLiquidityBatch",
      "outputs": [],
      "stateMutability": "nonpayable",
      "type": "function"
    },
    {
      "inputs": [],
      "name": "renounceOwnership",
      "outputs": [],
      "stateMutability": "nonpayable",
      "type": "function"
    },
    {
      "inputs": [
        {
          "internalType": "address",
          "name": "from",
          "type": "address"
        },
        {
          "internalType": "address",
          "name": "to",
          "type": "address"
        },
        {
          "internalType": "uint256",
          "name": "tokenId",
          "type": "uint256"
        }
      ],
      "name": "safeTransferFrom",
      "outputs": [],
      "stateMutability": "nonpayable",
      "type": "function"
    },
    {
      "inputs": [
        {
          "internalType": "address",
          "name": "from",
          "type": "address"
        },
        {
          "internalType": "address",
          "name": "to",
          "type": "address"
        },
        {
          "internalType": "uint256",
          "name": "tokenId",
          "type": "uint256"
        },
        {
          "internalType": "bytes",
          "name": "data",
          "type": "bytes"
        }
      ],
      "name": "safeTransferFrom",
      "outputs": [],
      "stateMutability": "nonpayable",
      "type": "function"
    },
    {
      "inputs": [
        {
          "internalType": "address",
          "name": "onBehalfOf",
          "type": "address"
        },
        {
          "internalType": "uint256[]",
          "name": "nftIds",
          "type": "uint256[]"
        },
        {
          "internalType": "uint256[]",
          "name": "liquidityPairs",
          "type": "uint256[]"
        },
        {
          "internalType": "uint256",
          "name": "minimumPrice",
          "type": "uint256"
        }
      ],
      "name": "sell",
      "outputs": [
        {
          "internalType": "uint256",
          "name": "",
          "type": "uint256"
        }
      ],
      "stateMutability": "nonpayable",
      "type": "function"
    },
    {
      "inputs": [
        {
          "internalType": "address",
          "name": "operator",
          "type": "address"
        },
        {
          "internalType": "bool",
          "name": "approved",
          "type": "bool"
        }
      ],
      "name": "setApprovalForAll",
      "outputs": [],
      "stateMutability": "nonpayable",
      "type": "function"
    },
    {
      "inputs": [
        {
          "internalType": "uint256",
          "name": "lpId",
          "type": "uint256"
        },
        {
          "internalType": "uint256",
          "name": "fee",
          "type": "uint256"
        }
      ],
      "name": "setLpFee",
      "outputs": [],
      "stateMutability": "nonpayable",
      "type": "function"
    },
    {
      "inputs": [
        {
          "internalType": "uint256",
          "name": "lpId",
          "type": "uint256"
        },
        {
          "internalType": "address",
          "name": "curve",
          "type": "address"
        },
        {
          "internalType": "uint256",
          "name": "delta",
          "type": "uint256"
        }
      ],
      "name": "setLpPricingCurve",
      "outputs": [],
      "stateMutability": "nonpayable",
      "type": "function"
    },
    {
      "inputs": [
        {
          "internalType": "uint256",
          "name": "lpId",
          "type": "uint256"
        },
        {
          "internalType": "uint256",
          "name": "spotPrice",
          "type": "uint256"
        }
      ],
      "name": "setLpSpotPrice",
      "outputs": [],
      "stateMutability": "nonpayable",
      "type": "function"
    },
    {
      "inputs": [
        {
          "internalType": "bool",
          "name": "paused",
          "type": "bool"
        }
      ],
      "name": "setPause",
      "outputs": [],
      "stateMutability": "nonpayable",
      "type": "function"
    },
    {
      "inputs": [
        {
          "internalType": "bytes4",
          "name": "interfaceId",
          "type": "bytes4"
        }
      ],
      "name": "supportsInterface",
      "outputs": [
        {
          "internalType": "bool",
          "name": "",
          "type": "bool"
        }
      ],
      "stateMutability": "view",
      "type": "function"
    },
    {
      "inputs": [],
      "name": "symbol",
      "outputs": [
        {
          "internalType": "string",
          "name": "",
          "type": "string"
        }
      ],
      "stateMutability": "view",
      "type": "function"
    },
    {
      "inputs": [
        {
          "internalType": "uint256",
          "name": "index",
          "type": "uint256"
        }
      ],
      "name": "tokenByIndex",
      "outputs": [
        {
          "internalType": "uint256",
          "name": "",
          "type": "uint256"
        }
      ],
      "stateMutability": "view",
      "type": "function"
    },
    {
      "inputs": [
        {
          "internalType": "address",
          "name": "owner",
          "type": "address"
        },
        {
          "internalType": "uint256",
          "name": "index",
          "type": "uint256"
        }
      ],
      "name": "tokenOfOwnerByIndex",
      "outputs": [
        {
          "internalType": "uint256",
          "name": "",
          "type": "uint256"
        }
      ],
      "stateMutability": "view",
      "type": "function"
    },
    {
      "inputs": [
        {
          "internalType": "uint256",
          "name": "tokenId",
          "type": "uint256"
        }
      ],
      "name": "tokenURI",
      "outputs": [
        {
          "internalType": "string",
          "name": "",
          "type": "string"
        }
      ],
      "stateMutability": "view",
      "type": "function"
    },
    {
      "inputs": [],
      "name": "totalSupply",
      "outputs": [
        {
          "internalType": "uint256",
          "name": "",
          "type": "uint256"
        }
      ],
      "stateMutability": "view",
      "type": "function"
    },
    {
      "inputs": [
        {
          "internalType": "address",
          "name": "from",
          "type": "address"
        },
        {
          "internalType": "address",
          "name": "to",
          "type": "address"
        },
        {
          "internalType": "uint256",
          "name": "tokenId",
          "type": "uint256"
        }
      ],
      "name": "transferFrom",
      "outputs": [],
      "stateMutability": "nonpayable",
      "type": "function"
    },
    {
      "inputs": [
        {
          "internalType": "address",
          "name": "newOwner",
          "type": "address"
        }
      ],
      "name": "transferOwnership",
      "outputs": [],
      "stateMutability": "nonpayable",
      "type": "function"
    }
  ],
  "bytecode": "0x60806040523480156200001157600080fd5b50604051620047dd380380620047dd8339810160408190526200003491620002d7565b8181600062000044838262000425565b50600162000053828262000425565b505050620000706200006a620001a360201b60201c565b620001a7565b856001600160a01b031663ca1470ea6040518163ffffffff1660e01b8152600401602060405180830381865afa158015620000af573d6000803e3d6000fd5b505050506040513d601f19601f82011682018060405250810190620000d59190620004f1565b6001600160a01b0316336001600160a01b0316146200014f5760405162461bcd60e51b815260206004820152602c60248201527f54726164696e6720506f6f6c206d75737420626520637265617465642074687260448201526b6f75676820466163746f727960a01b606482015260840160405180910390fd5b600b80546001600160a01b038089166001600160a01b031992831617909255600c8054878416908316179055600d8054928616929091169190911790556200019785620001a7565b50505050505062000518565b3390565b600a80546001600160a01b038381166001600160a01b0319831681179093556040519116919082907f8be0079c531659141344cd1fd0a4f28419497f9722a3daafe3b4186f6b6457e090600090a35050565b6001600160a01b03811681146200020f57600080fd5b50565b634e487b7160e01b600052604160045260246000fd5b600082601f8301126200023a57600080fd5b81516001600160401b038082111562000257576200025762000212565b604051601f8301601f19908116603f0116810190828211818310171562000282576200028262000212565b816040528381526020925086838588010111156200029f57600080fd5b600091505b83821015620002c35785820183015181830184015290820190620002a4565b600093810190920192909252949350505050565b60008060008060008060c08789031215620002f157600080fd5b8651620002fe81620001f9565b60208801519096506200031181620001f9565b60408801519095506200032481620001f9565b60608801519094506200033781620001f9565b60808801519093506001600160401b03808211156200035557600080fd5b620003638a838b0162000228565b935060a08901519150808211156200037a57600080fd5b506200038989828a0162000228565b9150509295509295509295565b600181811c90821680620003ab57607f821691505b602082108103620003cc57634e487b7160e01b600052602260045260246000fd5b50919050565b601f8211156200042057600081815260208120601f850160051c81016020861015620003fb5750805b601f850160051c820191505b818110156200041c5782815560010162000407565b5050505b505050565b81516001600160401b0381111562000441576200044162000212565b620004598162000452845462000396565b84620003d2565b602080601f831160018114620004915760008415620004785750858301515b600019600386901b1c1916600185901b1785556200041c565b600085815260208120601f198616915b82811015620004c257888601518255948401946001909101908401620004a1565b5085821015620004e15787850151600019600388901b60f8161c191681555b5050505050600190811b01905550565b6000602082840312156200050457600080fd5b81516200051181620001f9565b9392505050565b6142b580620005286000396000f3fe608060405234801561001057600080fd5b50600436106102065760003560e01c806370a082311161011a578063b31f0d62116100ad578063bf02c6541161007c578063bf02c65414610462578063c87b56dd14610475578063cdd3f29814610488578063e985e9c5146104a8578063f2fde38b146104e457600080fd5b8063b31f0d6214610420578063b88d4fde14610433578063bc063e1a14610446578063bedb86fb1461044f57600080fd5b806395d89b41116100e957806395d89b41146103df5780639c8f9f23146103e75780639debf34d146103fa578063a22cb4651461040d57600080fd5b806370a08231146103a2578063715018a6146103b557806388a6360e146103bd5780638da5cb5b146103ce57600080fd5b80632f745c591161019d5780634f6ccce71161016c5780634f6ccce7146103365780635460d8491461034957806356d131ce146103695780636352211e1461037c5780636d207b1a1461038f57600080fd5b80632f745c59146102ea57806342842e0e146102fd5780634765f2451461031057806349591b511461032357600080fd5b8063150b7a02116101d9578063150b7a021461028857806318160ddd146102b457806321df0da7146102c657806323b872dd146102d757600080fd5b806301ffc9a71461020b57806306fdde0314610233578063081812fc14610248578063095ea7b314610273575b600080fd5b61021e6102193660046138cb565b6104f7565b60405190151581526020015b60405180910390f35b61023b610508565b60405161022a9190613938565b61025b61025636600461394b565b61059a565b6040516001600160a01b03909116815260200161022a565b610286610281366004613979565b6105c1565b005b61029b6102963660046139ec565b6106db565b6040516001600160e01b0319909116815260200161022a565b6008545b60405190815260200161022a565b600c546001600160a01b031661025b565b6102866102e5366004613ab0565b6106ec565b6102b86102f8366004613979565b61071d565b61028661030b366004613ab0565b6107b3565b61028661031e366004613af1565b6107ce565b6102b8610331366004613b88565b61085d565b6102b861034436600461394b565b6111eb565b6102b861035736600461394b565b6000908152600f602052604090205490565b610286610377366004613c06565b61127e565b61025b61038a36600461394b565b611331565b61028661039d366004613c2d565b611391565b6102b86103b0366004613c62565b6113ff565b610286611485565b600d546001600160a01b031661025b565b600a546001600160a01b031661025b565b61023b611499565b6102866103f536600461394b565b6114a8565b610286610408366004613af1565b6116b5565b61028661041b366004613c8d565b611738565b6102b861042e366004613cc6565b611743565b6102866104413660046139ec565b61202d565b6102b861232881565b61028661045d366004613d1f565b612065565b610286610470366004613d3c565b61208b565b61023b61048336600461394b565b6125a3565b61049b61049636600461394b565b612617565b60405161022a9190613e01565b61021e6104b6366004613e63565b6001600160a01b03918216600090815260056020908152604080832093909416825291909152205460ff1690565b6102866104f2366004613c62565b6126ca565b600061050282612743565b92915050565b60606000805461051790613e91565b80601f016020809104026020016040519081016040528092919081815260200182805461054390613e91565b80156105905780601f1061056557610100808354040283529160200191610590565b820191906000526020600020905b81548152906001019060200180831161057357829003601f168201915b5050505050905090565b60006105a582612768565b506000908152600460205260409020546001600160a01b031690565b60006105cc82611331565b9050806001600160a01b0316836001600160a01b03160361063e5760405162461bcd60e51b815260206004820152602160248201527f4552433732313a20617070726f76616c20746f2063757272656e74206f776e656044820152603960f91b60648201526084015b60405180910390fd5b336001600160a01b038216148061065a575061065a81336104b6565b6106cc5760405162461bcd60e51b815260206004820152603d60248201527f4552433732313a20617070726f76652063616c6c6572206973206e6f7420746f60448201527f6b656e206f776e6572206f7220617070726f76656420666f7220616c6c0000006064820152608401610635565b6106d683836127c7565b505050565b630a85bd0160e11b5b949350505050565b6106f63382612835565b6107125760405162461bcd60e51b815260040161063590613ecb565b6106d68383836128b3565b6000610728836113ff565b821061078a5760405162461bcd60e51b815260206004820152602b60248201527f455243373231456e756d657261626c653a206f776e657220696e646578206f7560448201526a74206f6620626f756e647360a81b6064820152608401610635565b506001600160a01b03919091166000908152600660209081526040808320938352929052205490565b6106d68383836040518060200160405280600081525061202d565b6107d782611331565b6001600160a01b0316336001600160a01b0316146108075760405162461bcd60e51b815260040161063590613f18565b6000828152600e60205260409081902060050182905551829033907f6876b53468ceb1db2a0a6fe84eef2468841e8235b3bbc6d406685e95e190f398906108519085815260200190565b60405180910390a35050565b600b54600090600160a01b900460ff161561088a5760405162461bcd60e51b815260040161063590613f46565b82518451146108f25760405162461bcd60e51b815260206004820152602e60248201527f4e46547320616e64204c6971756964697479205061697273206d75737420686160448201526d0ecca40e6c2daca40d8cadccee8d60931b6064820152608401610635565b60008451116109435760405162461bcd60e51b815260206004820152601d60248201527f4e65656420746f2073656c6c206174206c65617374206f6e65204e46540000006044820152606401610635565b6001600160a01b0385163314610a4857600b60009054906101000a90046001600160a01b03166001600160a01b031663725c9c496040518163ffffffff1660e01b8152600401602060405180830381865afa1580156109a6573d6000803e3d6000fd5b505050506040513d601f19601f820116820180604052508101906109ca9190613f6e565b6001600160a01b0316336001600160a01b031614610a485760405162461bcd60e51b815260206004820152603560248201527f4f6e6c792053776170526f757465722063616e2073656c6c206f6e20626568616044820152746c66206f6620616e6f74686572206164647265737360581b6064820152608401610635565b6000806000806000610a586137f8565b60005b8a51811015610ee457610abc6040518060400160405280601a81526020017f5472616e73666572696e67204e465420257320746f20706f6f6c0000000000008152508c8381518110610aaf57610aaf613f8b565b6020026020010151612a24565b600d548b516001600160a01b03909116906342842e0e908e9030908f9086908110610ae957610ae9613f8b565b60200260200101516040518463ffffffff1660e01b8152600401610b0f93929190613fa1565b600060405180830381600087803b158015610b2957600080fd5b505af1158015610b3d573d6000803e3d6000fd5b5050505060008a8281518110610b5557610b55613f8b565b60200260200101519050600e60008281526020019081526020016000206040518060c001604052908160008201805480602002602001604051908101604052809291908181526020018280548015610bcc57602002820191906000526020600020905b815481526020019060010190808311610bb8575b505050918352505060018201546020820152600282015460408083019190915260038301546001600160a01b031660608301526004830154608083015260059092015460a0918201528201519082015191945061271091610c2d9190613fdb565b610c379190613ff2565b9650612710600b60009054906101000a90046001600160a01b03166001600160a01b031663ca1470ea6040518163ffffffff1660e01b8152600401602060405180830381865afa158015610c8f573d6000803e3d6000fd5b505050506040513d601f19601f82011682018060405250810190610cb39190613f6e565b6001600160a01b031663a5a410316040518163ffffffff1660e01b8152600401602060405180830381865afa158015610cf0573d6000803e3d6000fd5b505050506040513d601f19601f82011682018060405250810190610d149190614014565b610d1e9089613fdb565b610d289190613ff2565b9350826040015188610d3a919061402d565b9750610d46878761402d565b6000828152600e602052604090208d51919750908d9084908110610d6c57610d6c613f8b565b6020908102919091018101518254600181018455600093845291909220015560408301518490610d9d908990614040565b610da7919061402d565b6000828152600e602052604081206001018054909190610dc8908490614040565b9091555050606083015160408085015160808601519151633698f96560e11b81526001600160a01b0390931692636d31f2ca92610e119291600401918252602082015260400190565b602060405180830381865afa158015610e2e573d6000803e3d6000fd5b505050506040513d601f19601f82011682018060405250810190610e529190614014565b6000828152600e60208181526040808420600281019590955580518082019091528581529285905290815291549091820190610e9090600190614040565b815250600f60008e8581518110610ea957610ea9613f8b565b602090810291909101810151825281810192909252604001600020825181559101516001909101555080610edc81614053565b915050610a5b565b50610eef8487614040565b925087831015610f415760405162461bcd60e51b815260206004820152601e60248201527f5072696365206c6f776572207468616e206d696e696d756d20707269636500006044820152606401610635565b610f5833600c546001600160a01b03169085612a69565b600b546040805163c891317360e01b815290516110be926001600160a01b03169163c89131739160048083019260209291908290030181865afa158015610fa3573d6000803e3d6000fd5b505050506040513d601f19601f82011682018060405250810190610fc79190613f6e565b600b546040805163650a387560e11b81529051612710926001600160a01b03169163ca1470ea9160048083019260209291908290030181865afa158015611012573d6000803e3d6000fd5b505050506040513d601f19601f820116820180604052508101906110369190613f6e565b6001600160a01b031663a5a410316040518163ffffffff1660e01b8152600401602060405180830381865afa158015611073573d6000803e3d6000fd5b505050506040513d601f19601f820116820180604052508101906110979190614014565b6110a19088613fdb565b6110ab9190613ff2565b600c546001600160a01b03169190612a69565b600b60009054906101000a90046001600160a01b03166001600160a01b031663c89131736040518163ffffffff1660e01b8152600401602060405180830381865afa158015611111573d6000803e3d6000fd5b505050506040513d601f19601f820116820180604052508101906111359190613f6e565b600c546040516354b94c2f60e11b81526001600160a01b03918216600482015291169063a972985e90602401600060405180830381600087803b15801561117b57600080fd5b505af115801561118f573d6000803e3d6000fd5b5050505061119a3390565b6001600160a01b03167feb3c528adebc70d317bef09706905761642981ebf9def9aafdc40f404e49346a8b856040516111d492919061406c565b60405180910390a250909998505050505050505050565b60006111f660085490565b82106112595760405162461bcd60e51b815260206004820152602c60248201527f455243373231456e756d657261626c653a20676c6f62616c20696e646578206f60448201526b7574206f6620626f756e647360a01b6064820152608401610635565b6008828154811061126c5761126c613f8b565b90600052602060002001549050919050565b61128783611331565b6001600160a01b0316336001600160a01b0316146112b75760405162461bcd60e51b815260040161063590613f18565b6000838152600e60209081526040918290206003810180546001600160a01b0319166001600160a01b03871690811790915560049091018490558251908152908101839052849133917f3d172f139a404912c8ac9294b8c5629d8e27a95381da174d83481b3f80bcc2ea91015b60405180910390a3505050565b6000818152600260205260408120546001600160a01b0316806105025760405162461bcd60e51b8152602060048201526018602482015277115490cdcc8c4e881a5b9d985b1a59081d1bdad95b88125160421b6044820152606401610635565b600b54600160a01b900460ff16156113bb5760405162461bcd60e51b815260040161063590613f46565b60005b81518110156113fb576113e98282815181106113dc576113dc613f8b565b60200260200101516114a8565b806113f381614053565b9150506113be565b5050565b60006001600160a01b0382166114695760405162461bcd60e51b815260206004820152602960248201527f4552433732313a2061646472657373207a65726f206973206e6f7420612076616044820152683634b21037bbb732b960b91b6064820152608401610635565b506001600160a01b031660009081526003602052604090205490565b61148d612acc565b6114976000612b26565b565b60606001805461051790613e91565b600b54600160a01b900460ff16156114d25760405162461bcd60e51b815260040161063590613f46565b6114db81611331565b6001600160a01b0316336001600160a01b03161461150b5760405162461bcd60e51b815260040161063590613f18565b60005b6000828152600e602052604090205481101561160957600d546001600160a01b03166342842e0e30336000868152600e6020526040902080548690811061155757611557613f8b565b90600052602060002001546040518463ffffffff1660e01b815260040161158093929190613fa1565b600060405180830381600087803b15801561159a57600080fd5b505af11580156115ae573d6000803e3d6000fd5b5050506000838152600e602052604081208054600f9350849081106115d5576115d5613f8b565b600091825260208083209091015483528201929092526040018120818155600101558061160181614053565b91505061150e565b50611633336000838152600e6020526040902060010154600c546001600160a01b03169190612a69565b6000818152600e602052604081209061164c8282613837565b50600060018201819055600282018190556003820180546001600160a01b03191690556004820181905560059091015561168581612b78565b604051819033907fdfdd120ded9b7afc0c23dd5310e93aaa3e1c3b9f75af9b805fab3030842439f290600090a350565b6116be82611331565b6001600160a01b0316336001600160a01b0316146116ee5760405162461bcd60e51b815260040161063590613f18565b6000828152600e60205260409081902060020182905551829033907ff59d29be85d17abec043ede6b5d9714c5ae30886615ec30ea761442933098175906108519085815260200190565b6113fb338383612c1b565b600b54600090600160a01b900460ff16156117705760405162461bcd60e51b815260040161063590613f46565b60008351116117c15760405162461bcd60e51b815260206004820152601c60248201527f4e65656420746f20627579206174206c65617374206f6e65204e4654000000006044820152606401610635565b6000806000806000806117d26137f8565b60005b8a51811015611d4257600f60008c83815181106117f4576117f4613f8b565b60200260200101518152602001908152602001600020600001549550600e60008781526020019081526020016000206040518060c00160405290816000820180548060200260200160405190810160405280929190818152602001828054801561187d57602002820191906000526020600020905b815481526020019060010190808311611869575b505050918352505060018201546020820152600282015460408083019190915260038301546001600160a01b031660608301526004830154608083015260059092015460a09182015282015190820151919350612710916118de9190613fdb565b6118e89190613ff2565b9450612710600b60009054906101000a90046001600160a01b03166001600160a01b031663ca1470ea6040518163ffffffff1660e01b8152600401602060405180830381865afa158015611940573d6000803e3d6000fd5b505050506040513d601f19601f820116820180604052508101906119649190613f6e565b6001600160a01b031663a5a410316040518163ffffffff1660e01b8152600401602060405180830381865afa1580156119a1573d6000803e3d6000fd5b505050506040513d601f19601f820116820180604052508101906119c59190614014565b6119cf9087613fdb565b6119d99190613ff2565b6000878152600e602052604090208054919450906119f990600190614040565b81548110611a0957611a09613f8b565b9060005260206000200154600e6000888152602001908152602001600020600001600f60008e8581518110611a4057611a40613f8b565b602002602001015181526020019081526020016000206001015481548110611a6a57611a6a613f8b565b6000918252602080832090910192909255878152600e90915260409020805480611a9657611a9661408e565b6001900381819060005260206000200160009055905582858360400151611abd919061402d565b611ac79190614040565b6000878152600e602052604081206001018054909190611ae890849061402d565b90915550506040820151611afc908961402d565b9750611b08858561402d565b935081606001516001600160a01b031663bb1690e2836040015184608001516040518363ffffffff1660e01b8152600401611b4d929190918252602082015260400190565b602060405180830381865afa158015611b6a573d6000803e3d6000fd5b505050506040513d601f19601f82011682018060405250810190611b8e9190614014565b600e600088815260200190815260200160002060020181905550611c026040518060400160405280600981526020016804e465420546f204c560bc1b815250600f60008e8581518110611be357611be3613f8b565b6020026020010151815260200190815260200160002060000154612a24565b600f60008c8381518110611c1857611c18613f8b565b6020026020010151815260200190815260200160002060008082016000905560018201600090555050611c766040518060400160405280601381526020017229b2b73234b7339027232a103a37903ab9b2b960691b8152508d612ce1565b611caa6040518060400160405280600681526020016513919508125160d21b8152508c8381518110610aaf57610aaf613f8b565b600d548b516001600160a01b03909116906342842e0e9030908f908f9086908110611cd757611cd7613f8b565b60200260200101516040518463ffffffff1660e01b8152600401611cfd93929190613fa1565b600060405180830381600087803b158015611d1757600080fd5b505af1158015611d2b573d6000803e3d6000fd5b505050508080611d3a90614053565b9150506117d5565b50611d4d838861402d565b955088861115611d9f5760405162461bcd60e51b815260206004820152601f60248201527f507269636520686967686572207468616e206d6178696d756d207072696365006044820152606401610635565b611db733600c546001600160a01b0316903089612d26565b600b546040805163c891317360e01b81529051611f00926001600160a01b03169163c89131739160048083019260209291908290030181865afa158015611e02573d6000803e3d6000fd5b505050506040513d601f19601f82011682018060405250810190611e269190613f6e565b600b546040805163650a387560e11b81529051612710926001600160a01b03169163ca1470ea9160048083019260209291908290030181865afa158015611e71573d6000803e3d6000fd5b505050506040513d601f19601f82011682018060405250810190611e959190613f6e565b6001600160a01b031663a5a410316040518163ffffffff1660e01b8152600401602060405180830381865afa158015611ed2573d6000803e3d6000fd5b505050506040513d601f19601f82011682018060405250810190611ef69190614014565b6110a19087613fdb565b600b60009054906101000a90046001600160a01b03166001600160a01b031663c89131736040518163ffffffff1660e01b8152600401602060405180830381865afa158015611f53573d6000803e3d6000fd5b505050506040513d601f19601f82011682018060405250810190611f779190613f6e565b600c546040516354b94c2f60e11b81526001600160a01b03918216600482015291169063a972985e90602401600060405180830381600087803b158015611fbd57600080fd5b505af1158015611fd1573d6000803e3d6000fd5b50505050611fdc3390565b6001600160a01b03167f0306912acbf130bc61cce94222a394a64e258433196a3d3679a9bbfb8973f7738b8860405161201692919061406c565b60405180910390a250939998505050505050505050565b6120373383612835565b6120535760405162461bcd60e51b815260040161063590613ecb565b61205f84848484612d47565b50505050565b61206d612acc565b600b8054911515600160a01b0260ff60a01b19909216919091179055565b600b54600160a01b900460ff16156120b55760405162461bcd60e51b815260040161063590613f46565b60008511806120c5575060008651115b61210a5760405162461bcd60e51b81526020600482015260166024820152754465706f7369742063616e277420626520656d70747960501b6044820152606401610635565b6040516301ffc9a760e01b8152630b2ac51960e01b60048201526001600160a01b038416906301ffc9a790602401602060405180830381865afa158015612155573d6000803e3d6000fd5b505050506040513d601f19601f8201168201806040525081019061217991906140a4565b6121d15760405162461bcd60e51b8152602060048201526024808201527f4375727665206d75737420626520612076616c696420637572766520636f6e746044820152631c9858dd60e21b6064820152608401610635565b604051638926a2f760e01b8152600481018390526001600160a01b03841690638926a2f790602401602060405180830381865afa158015612216573d6000803e3d6000fd5b505050506040513d601f19601f8201168201806040525081019061223a91906140a4565b6122765760405162461bcd60e51b815260206004820152600d60248201526c496e76616c69642064656c746160981b6044820152606401610635565b604051632a1582e360e11b8152600481018590526001600160a01b0384169063542b05c690602401602060405180830381865afa1580156122bb573d6000803e3d6000fd5b505050506040513d601f19601f820116820180604052508101906122df91906140a4565b6123205760405162461bcd60e51b8152602060048201526012602482015271496e76616c69642073706f7420707269636560701b6044820152606401610635565b6123288111156123725760405162461bcd60e51b815260206004820152601960248201527f466565206d757374206265206c657373207468616e20393025000000000000006044820152606401610635565b60005b865181101561246257600d546001600160a01b03166342842e0e33308a85815181106123a3576123a3613f8b565b60200260200101516040518463ffffffff1660e01b81526004016123c993929190613fa1565b600060405180830381600087803b1580156123e357600080fd5b505af11580156123f7573d6000803e3d6000fd5b505050506040518060400160405280601054815260200182815250600f600089848151811061242857612428613f8b565b602090810291909101810151825281810192909252604001600020825181559101516001909101558061245a81614053565b915050612375565b5061247b33600c546001600160a01b0316903088612d26565b6040805160c08101825287815260208082018890528183018790526001600160a01b03861660608301526080820185905260a082018490526010546000908152600e82529290922081518051929391926124d89284920190613855565b50602082015160018201556040820151600282015560608201516003820180546001600160a01b0319166001600160a01b039092169190911790556080820151600482015560a090910151600590910155601054612537908890612d7a565b601054876001600160a01b03167f3638cde15cf70057c6e625bd7b75808aa739ff9b0d015cf1c02093729926c06288888888888860405161257d969594939291906140c1565b60405180910390a36010805490600061259583614053565b919050555050505050505050565b60606125ae82612768565b60006125c560408051602081019091526000815290565b905060008151116125e55760405180602001604052806000815250612610565b806125ef84612d94565b604051602001612600929190614106565b6040516020818303038152906040525b9392505050565b61261f6137f8565b6000828152600e60209081526040918290208251815460e09381028201840190945260c08101848152909391928492849184018282801561267f57602002820191906000526020600020905b81548152602001906001019080831161266b575b5050509183525050600182015460208201526002820154604082015260038201546001600160a01b031660608201526004820154608082015260059091015460a09091015292915050565b6126d2612acc565b6001600160a01b0381166127375760405162461bcd60e51b815260206004820152602660248201527f4f776e61626c653a206e6577206f776e657220697320746865207a65726f206160448201526564647265737360d01b6064820152608401610635565b61274081612b26565b50565b60006001600160e01b0319821663780e9d6360e01b1480610502575061050282612e27565b6000818152600260205260409020546001600160a01b03166127405760405162461bcd60e51b8152602060048201526018602482015277115490cdcc8c4e881a5b9d985b1a59081d1bdad95b88125160421b6044820152606401610635565b600081815260046020526040902080546001600160a01b0319166001600160a01b03841690811790915581906127fc82611331565b6001600160a01b03167f8c5be1e5ebec7d5bd14f71427d1e84f3dd0314c0f7b2291e5b200ac8c7c3b92560405160405180910390a45050565b60008061284183611331565b9050806001600160a01b0316846001600160a01b0316148061288857506001600160a01b0380821660009081526005602090815260408083209388168352929052205460ff165b806106e45750836001600160a01b03166128a18461059a565b6001600160a01b031614949350505050565b826001600160a01b03166128c682611331565b6001600160a01b0316146128ec5760405162461bcd60e51b815260040161063590614135565b6001600160a01b03821661294e5760405162461bcd60e51b8152602060048201526024808201527f4552433732313a207472616e7366657220746f20746865207a65726f206164646044820152637265737360e01b6064820152608401610635565b61295b8383836001612e77565b826001600160a01b031661296e82611331565b6001600160a01b0316146129945760405162461bcd60e51b815260040161063590614135565b600081815260046020908152604080832080546001600160a01b03199081169091556001600160a01b0387811680865260038552838620805460001901905590871680865283862080546001019055868652600290945282852080549092168417909155905184937fddf252ad1be2c89b69c2b068fc378daa952ba7f163c4a11628f55a4df523b3ef91a4505050565b6113fb8282604051602401612a3a92919061417a565b60408051601f198184030181529190526020810180516001600160e01b0316632d839cb360e21b179052612e83565b6040516001600160a01b0383166024820152604481018290526106d690849063a9059cbb60e01b906064015b60408051601f198184030181529190526020810180516001600160e01b03166001600160e01b031990931692909217909152612ea4565b600a546001600160a01b031633146114975760405162461bcd60e51b815260206004820181905260248201527f4f776e61626c653a2063616c6c6572206973206e6f7420746865206f776e65726044820152606401610635565b600a80546001600160a01b038381166001600160a01b0319831681179093556040519116919082907f8be0079c531659141344cd1fd0a4f28419497f9722a3daafe3b4186f6b6457e090600090a35050565b6000612b8382611331565b9050612b93816000846001612e77565b612b9c82611331565b600083815260046020908152604080832080546001600160a01b03199081169091556001600160a01b0385168085526003845282852080546000190190558785526002909352818420805490911690555192935084927fddf252ad1be2c89b69c2b068fc378daa952ba7f163c4a11628f55a4df523b3ef908390a45050565b816001600160a01b0316836001600160a01b031603612c7c5760405162461bcd60e51b815260206004820152601960248201527f4552433732313a20617070726f766520746f2063616c6c6572000000000000006044820152606401610635565b6001600160a01b03838116600081815260056020908152604080832094871680845294825291829020805460ff191686151590811790915591519182527f17307eab39ab6107e8899845ad3d59bd9653f200f220920489ca2b5937696c319101611324565b6113fb8282604051602401612cf792919061418d565b60408051601f198184030181529190526020810180516001600160e01b031663319af33360e01b179052612e83565b61205f846323b872dd60e01b858585604051602401612a9593929190613fa1565b612d528484846128b3565b612d5e84848484612f76565b61205f5760405162461bcd60e51b8152600401610635906141b7565b6113fb828260405180602001604052806000815250613074565b60606000612da1836130a7565b600101905060008167ffffffffffffffff811115612dc157612dc16139a5565b6040519080825280601f01601f191660200182016040528015612deb576020820181803683370190505b5090508181016020015b600019016f181899199a1a9b1b9c1cb0b131b232b360811b600a86061a8153600a8504945084612df557509392505050565b60006001600160e01b031982166380ac58cd60e01b1480612e5857506001600160e01b03198216635b5e139f60e01b145b8061050257506301ffc9a760e01b6001600160e01b0319831614610502565b61205f8484848461317f565b80516a636f6e736f6c652e6c6f67602083016000808483855afa5050505050565b6000612ef9826040518060400160405280602081526020017f5361666545524332303a206c6f772d6c6576656c2063616c6c206661696c6564815250856001600160a01b03166132bf9092919063ffffffff16565b8051909150156106d65780806020019051810190612f1791906140a4565b6106d65760405162461bcd60e51b815260206004820152602a60248201527f5361666545524332303a204552433230206f7065726174696f6e20646964206e6044820152691bdd081cdd58d8d9595960b21b6064820152608401610635565b60006001600160a01b0384163b1561306c57604051630a85bd0160e11b81526001600160a01b0385169063150b7a0290612fba903390899088908890600401614209565b6020604051808303816000875af1925050508015612ff5575060408051601f3d908101601f19168201909252612ff291810190614246565b60015b613052573d808015613023576040519150601f19603f3d011682016040523d82523d6000602084013e613028565b606091505b50805160000361304a5760405162461bcd60e51b8152600401610635906141b7565b805181602001fd5b6001600160e01b031916630a85bd0160e11b1490506106e4565b5060016106e4565b61307e83836132ce565b61308b6000848484612f76565b6106d65760405162461bcd60e51b8152600401610635906141b7565b60008072184f03e93ff9f4daa797ed6e38ed64bf6a1f0160401b83106130e65772184f03e93ff9f4daa797ed6e38ed64bf6a1f0160401b830492506040015b6d04ee2d6d415b85acef81000000008310613112576d04ee2d6d415b85acef8100000000830492506020015b662386f26fc10000831061313057662386f26fc10000830492506010015b6305f5e1008310613148576305f5e100830492506008015b612710831061315c57612710830492506004015b6064831061316e576064830492506002015b600a83106105025760010192915050565b61318b84848484613467565b60018111156131fa5760405162461bcd60e51b815260206004820152603560248201527f455243373231456e756d657261626c653a20636f6e7365637574697665207472604482015274185b9cd9995c9cc81b9bdd081cdd5c1c1bdc9d1959605a1b6064820152608401610635565b816001600160a01b0385166132565761325181600880546000838152600960205260408120829055600182018355919091527ff3f7a9fe364faab93b216da50a3214154f22a0a2b415b23a84c8169e8b636ee30155565b613279565b836001600160a01b0316856001600160a01b0316146132795761327985826134ef565b6001600160a01b038416613295576132908161358c565b6132b8565b846001600160a01b0316846001600160a01b0316146132b8576132b8848261363b565b5050505050565b60606106e4848460008561367f565b6001600160a01b0382166133245760405162461bcd60e51b815260206004820181905260248201527f4552433732313a206d696e7420746f20746865207a65726f20616464726573736044820152606401610635565b6000818152600260205260409020546001600160a01b0316156133895760405162461bcd60e51b815260206004820152601c60248201527f4552433732313a20746f6b656e20616c7265616479206d696e746564000000006044820152606401610635565b613397600083836001612e77565b6000818152600260205260409020546001600160a01b0316156133fc5760405162461bcd60e51b815260206004820152601c60248201527f4552433732313a20746f6b656e20616c7265616479206d696e746564000000006044820152606401610635565b6001600160a01b038216600081815260036020908152604080832080546001019055848352600290915280822080546001600160a01b0319168417905551839291907fddf252ad1be2c89b69c2b068fc378daa952ba7f163c4a11628f55a4df523b3ef908290a45050565b600181111561205f576001600160a01b038416156134ad576001600160a01b038416600090815260036020526040812080548392906134a7908490614040565b90915550505b6001600160a01b0383161561205f576001600160a01b038316600090815260036020526040812080548392906134e490849061402d565b909155505050505050565b600060016134fc846113ff565b6135069190614040565b600083815260076020526040902054909150808214613559576001600160a01b03841660009081526006602090815260408083208584528252808320548484528184208190558352600790915290208190555b5060009182526007602090815260408084208490556001600160a01b039094168352600681528383209183525290812055565b60085460009061359e90600190614040565b600083815260096020526040812054600880549394509092849081106135c6576135c6613f8b565b9060005260206000200154905080600883815481106135e7576135e7613f8b565b600091825260208083209091019290925582815260099091526040808220849055858252812055600880548061361f5761361f61408e565b6001900381819060005260206000200160009055905550505050565b6000613646836113ff565b6001600160a01b039093166000908152600660209081526040808320868452825280832085905593825260079052919091209190915550565b6060824710156136e05760405162461bcd60e51b815260206004820152602660248201527f416464726573733a20696e73756666696369656e742062616c616e636520666f6044820152651c8818d85b1b60d21b6064820152608401610635565b600080866001600160a01b031685876040516136fc9190614263565b60006040518083038185875af1925050503d8060008114613739576040519150601f19603f3d011682016040523d82523d6000602084013e61373e565b606091505b509150915061374f8783838761375a565b979650505050505050565b606083156137c95782516000036137c2576001600160a01b0385163b6137c25760405162461bcd60e51b815260206004820152601d60248201527f416464726573733a2063616c6c20746f206e6f6e2d636f6e74726163740000006044820152606401610635565b50816106e4565b6106e483838151156137de5781518083602001fd5b8060405162461bcd60e51b81526004016106359190613938565b6040518060c0016040528060608152602001600081526020016000815260200160006001600160a01b0316815260200160008152602001600081525090565b508054600082559060005260206000209081019061274091906138a0565b828054828255906000526020600020908101928215613890579160200282015b82811115613890578251825591602001919060010190613875565b5061389c9291506138a0565b5090565b5b8082111561389c57600081556001016138a1565b6001600160e01b03198116811461274057600080fd5b6000602082840312156138dd57600080fd5b8135612610816138b5565b60005b838110156139035781810151838201526020016138eb565b50506000910152565b600081518084526139248160208601602086016138e8565b601f01601f19169290920160200192915050565b602081526000612610602083018461390c565b60006020828403121561395d57600080fd5b5035919050565b6001600160a01b038116811461274057600080fd5b6000806040838503121561398c57600080fd5b823561399781613964565b946020939093013593505050565b634e487b7160e01b600052604160045260246000fd5b604051601f8201601f1916810167ffffffffffffffff811182821017156139e4576139e46139a5565b604052919050565b60008060008060808587031215613a0257600080fd5b8435613a0d81613964565b9350602085810135613a1e81613964565b935060408601359250606086013567ffffffffffffffff80821115613a4257600080fd5b818801915088601f830112613a5657600080fd5b813581811115613a6857613a686139a5565b613a7a601f8201601f191685016139bb565b91508082528984828501011115613a9057600080fd5b808484018584013760008482840101525080935050505092959194509250565b600080600060608486031215613ac557600080fd5b8335613ad081613964565b92506020840135613ae081613964565b929592945050506040919091013590565b60008060408385031215613b0457600080fd5b50508035926020909101359150565b600082601f830112613b2457600080fd5b8135602067ffffffffffffffff821115613b4057613b406139a5565b8160051b613b4f8282016139bb565b9283528481018201928281019087851115613b6957600080fd5b83870192505b8483101561374f57823582529183019190830190613b6f565b60008060008060808587031215613b9e57600080fd5b8435613ba981613964565b9350602085013567ffffffffffffffff80821115613bc657600080fd5b613bd288838901613b13565b94506040870135915080821115613be857600080fd5b50613bf587828801613b13565b949793965093946060013593505050565b600080600060608486031215613c1b57600080fd5b833592506020840135613ae081613964565b600060208284031215613c3f57600080fd5b813567ffffffffffffffff811115613c5657600080fd5b6106e484828501613b13565b600060208284031215613c7457600080fd5b813561261081613964565b801515811461274057600080fd5b60008060408385031215613ca057600080fd5b8235613cab81613964565b91506020830135613cbb81613c7f565b809150509250929050565b600080600060608486031215613cdb57600080fd5b8335613ce681613964565b9250602084013567ffffffffffffffff811115613d0257600080fd5b613d0e86828701613b13565b925050604084013590509250925092565b600060208284031215613d3157600080fd5b813561261081613c7f565b600080600080600080600060e0888a031215613d5757600080fd5b8735613d6281613964565b9650602088013567ffffffffffffffff811115613d7e57600080fd5b613d8a8a828b01613b13565b96505060408801359450606088013593506080880135613da981613964565b9699959850939692959460a0840135945060c09093013592915050565b600081518084526020808501945080840160005b83811015613df657815187529582019590820190600101613dda565b509495945050505050565b602081526000825160c06020840152613e1d60e0840182613dc6565b9050602084015160408401526040840151606084015260018060a01b036060850151166080840152608084015160a084015260a084015160c08401528091505092915050565b60008060408385031215613e7657600080fd5b8235613e8181613964565b91506020830135613cbb81613964565b600181811c90821680613ea557607f821691505b602082108103613ec557634e487b7160e01b600052602260045260246000fd5b50919050565b6020808252602d908201527f4552433732313a2063616c6c6572206973206e6f7420746f6b656e206f776e6560408201526c1c881bdc88185c1c1c9bdd9959609a1b606082015260800190565b60208082526014908201527326bab9ba1037bbb7102628103837b9b4ba34b7b760611b604082015260600190565b6020808252600e908201526d141bdbdb081a5cc81c185d5cd95960921b604082015260600190565b600060208284031215613f8057600080fd5b815161261081613964565b634e487b7160e01b600052603260045260246000fd5b6001600160a01b039384168152919092166020820152604081019190915260600190565b634e487b7160e01b600052601160045260246000fd5b808202811582820484141761050257610502613fc5565b60008261400f57634e487b7160e01b600052601260045260246000fd5b500490565b60006020828403121561402657600080fd5b5051919050565b8082018082111561050257610502613fc5565b8181038181111561050257610502613fc5565b60006001820161406557614065613fc5565b5060010190565b60408152600061407f6040830185613dc6565b90508260208301529392505050565b634e487b7160e01b600052603160045260246000fd5b6000602082840312156140b657600080fd5b815161261081613c7f565b60c0815260006140d460c0830189613dc6565b60208301979097525060408101949094526001600160a01b03929092166060840152608083015260a090910152919050565b600083516141188184602088016138e8565b83519083019061412c8183602088016138e8565b01949350505050565b60208082526025908201527f4552433732313a207472616e736665722066726f6d20696e636f72726563742060408201526437bbb732b960d91b606082015260800190565b60408152600061407f604083018561390c565b6040815260006141a0604083018561390c565b905060018060a01b03831660208301529392505050565b60208082526032908201527f4552433732313a207472616e7366657220746f206e6f6e20455243373231526560408201527131b2b4bb32b91034b6b83632b6b2b73a32b960711b606082015260800190565b6001600160a01b038581168252841660208201526040810183905260806060820181905260009061423c9083018461390c565b9695505050505050565b60006020828403121561425857600080fd5b8151612610816138b5565b600082516142758184602087016138e8565b919091019291505056fea264697066735822122095331f128cb078594e0d06f8cfbe9e046fd744abf9c50ed9f2402a9032886e3f64736f6c63430008110033",
  "linkReferences": {},
  "deployedLinkReferences": {}
}