{
  "_format": "hh-sol-artifact-1",
  "contractName": "TradingPool",
  "sourceName": "contracts/protocol/Trading/TradingPool.sol",
  "abi": [
    {
      "inputs": [
        {
          "internalType": "contract IAddressesProvider",
          "name": "addressProvider",
          "type": "address"
        },
        {
          "internalType": "address",
          "name": "owner",
          "type": "address"
        },
        {
          "internalType": "contract IERC20",
          "name": "token",
          "type": "address"
        },
        {
          "internalType": "address",
          "name": "nft",
          "type": "address"
        },
        {
          "internalType": "string",
          "name": "name",
          "type": "string"
        },
        {
          "internalType": "string",
          "name": "symbol",
          "type": "string"
        }
      ],
      "stateMutability": "nonpayable",
      "type": "constructor"
    },
    {
      "anonymous": false,
      "inputs": [
        {
          "indexed": true,
          "internalType": "address",
          "name": "user",
          "type": "address"
        },
        {
          "indexed": true,
          "internalType": "uint256",
          "name": "id",
          "type": "uint256"
        },
        {
          "indexed": false,
          "internalType": "uint256[]",
          "name": "nftIds",
          "type": "uint256[]"
        },
        {
          "indexed": false,
          "internalType": "uint256",
          "name": "tokenAmount",
          "type": "uint256"
        },
        {
          "indexed": false,
          "internalType": "uint256",
          "name": "initalPrice",
          "type": "uint256"
        },
        {
          "indexed": false,
          "internalType": "address",
          "name": "curve",
          "type": "address"
        },
        {
          "indexed": false,
          "internalType": "uint256",
          "name": "delta",
          "type": "uint256"
        },
        {
          "indexed": false,
          "internalType": "uint256",
          "name": "fee",
          "type": "uint256"
        }
      ],
      "name": "AddLiquidity",
      "type": "event"
    },
    {
      "anonymous": false,
      "inputs": [
        {
          "indexed": true,
          "internalType": "address",
          "name": "owner",
          "type": "address"
        },
        {
          "indexed": true,
          "internalType": "address",
          "name": "approved",
          "type": "address"
        },
        {
          "indexed": true,
          "internalType": "uint256",
          "name": "tokenId",
          "type": "uint256"
        }
      ],
      "name": "Approval",
      "type": "event"
    },
    {
      "anonymous": false,
      "inputs": [
        {
          "indexed": true,
          "internalType": "address",
          "name": "owner",
          "type": "address"
        },
        {
          "indexed": true,
          "internalType": "address",
          "name": "operator",
          "type": "address"
        },
        {
          "indexed": false,
          "internalType": "bool",
          "name": "approved",
          "type": "bool"
        }
      ],
      "name": "ApprovalForAll",
      "type": "event"
    },
    {
      "anonymous": false,
      "inputs": [
        {
          "indexed": true,
          "internalType": "address",
          "name": "user",
          "type": "address"
        },
        {
          "indexed": false,
          "internalType": "uint256[]",
          "name": "nftIds",
          "type": "uint256[]"
        },
        {
          "indexed": false,
          "internalType": "uint256",
          "name": "price",
          "type": "uint256"
        }
      ],
      "name": "Buy",
      "type": "event"
    },
    {
      "anonymous": false,
      "inputs": [
        {
          "indexed": true,
          "internalType": "address",
          "name": "previousOwner",
          "type": "address"
        },
        {
          "indexed": true,
          "internalType": "address",
          "name": "newOwner",
          "type": "address"
        }
      ],
      "name": "OwnershipTransferred",
      "type": "event"
    },
    {
      "anonymous": false,
      "inputs": [
        {
          "indexed": true,
          "internalType": "address",
          "name": "user",
          "type": "address"
        },
        {
          "indexed": true,
          "internalType": "uint256",
          "name": "lpId",
          "type": "uint256"
        }
      ],
      "name": "RemoveLiquidity",
      "type": "event"
    },
    {
      "anonymous": false,
      "inputs": [
        {
          "indexed": true,
          "internalType": "address",
          "name": "user",
          "type": "address"
        },
        {
          "indexed": false,
          "internalType": "uint256[]",
          "name": "nftIds",
          "type": "uint256[]"
        },
        {
          "indexed": false,
          "internalType": "uint256",
          "name": "price",
          "type": "uint256"
        }
      ],
      "name": "Sell",
      "type": "event"
    },
    {
      "anonymous": false,
      "inputs": [
        {
          "indexed": true,
          "internalType": "address",
          "name": "user",
          "type": "address"
        },
        {
          "indexed": true,
          "internalType": "uint256",
          "name": "lpId",
          "type": "uint256"
        },
        {
          "indexed": false,
          "internalType": "uint256",
          "name": "fee",
          "type": "uint256"
        }
      ],
      "name": "SetLpFee",
      "type": "event"
    },
    {
      "anonymous": false,
      "inputs": [
        {
          "indexed": true,
          "internalType": "address",
          "name": "user",
          "type": "address"
        },
        {
          "indexed": true,
          "internalType": "uint256",
          "name": "lpId",
          "type": "uint256"
        },
        {
          "indexed": false,
          "internalType": "uint256",
          "name": "price",
          "type": "uint256"
        }
      ],
      "name": "SetLpPrice",
      "type": "event"
    },
    {
      "anonymous": false,
      "inputs": [
        {
          "indexed": true,
          "internalType": "address",
          "name": "user",
          "type": "address"
        },
        {
          "indexed": true,
          "internalType": "uint256",
          "name": "lpId",
          "type": "uint256"
        },
        {
          "indexed": false,
          "internalType": "address",
          "name": "curve",
          "type": "address"
        },
        {
          "indexed": false,
          "internalType": "uint256",
          "name": "delta",
          "type": "uint256"
        }
      ],
      "name": "SetLpPricingCurve",
      "type": "event"
    },
    {
      "anonymous": false,
      "inputs": [
        {
          "indexed": true,
          "internalType": "address",
          "name": "from",
          "type": "address"
        },
        {
          "indexed": true,
          "internalType": "address",
          "name": "to",
          "type": "address"
        },
        {
          "indexed": true,
          "internalType": "uint256",
          "name": "tokenId",
          "type": "uint256"
        }
      ],
      "name": "Transfer",
      "type": "event"
    },
    {
      "inputs": [
        {
          "internalType": "address",
          "name": "receiver",
          "type": "address"
        },
        {
          "internalType": "uint256[]",
          "name": "nftIds",
          "type": "uint256[]"
        },
        {
          "internalType": "uint256",
          "name": "tokenAmount",
          "type": "uint256"
        },
        {
          "internalType": "uint256",
          "name": "initialPrice",
          "type": "uint256"
        },
        {
          "internalType": "address",
          "name": "curve",
          "type": "address"
        },
        {
          "internalType": "uint256",
          "name": "delta",
          "type": "uint256"
        },
        {
          "internalType": "uint256",
          "name": "fee",
          "type": "uint256"
        }
      ],
      "name": "addLiquidity",
      "outputs": [],
      "stateMutability": "nonpayable",
      "type": "function"
    },
    {
      "inputs": [
        {
          "internalType": "address",
          "name": "to",
          "type": "address"
        },
        {
          "internalType": "uint256",
          "name": "tokenId",
          "type": "uint256"
        }
      ],
      "name": "approve",
      "outputs": [],
      "stateMutability": "nonpayable",
      "type": "function"
    },
    {
      "inputs": [
        {
          "internalType": "address",
          "name": "owner",
          "type": "address"
        }
      ],
      "name": "balanceOf",
      "outputs": [
        {
          "internalType": "uint256",
          "name": "",
          "type": "uint256"
        }
      ],
      "stateMutability": "view",
      "type": "function"
    },
    {
      "inputs": [
        {
          "internalType": "address",
          "name": "onBehalfOf",
          "type": "address"
        },
        {
          "internalType": "uint256[]",
          "name": "nftIds",
          "type": "uint256[]"
        },
        {
          "internalType": "uint256",
          "name": "maximumPrice",
          "type": "uint256"
        }
      ],
      "name": "buy",
      "outputs": [
        {
          "internalType": "uint256",
          "name": "",
          "type": "uint256"
        }
      ],
      "stateMutability": "nonpayable",
      "type": "function"
    },
    {
      "inputs": [
        {
          "internalType": "uint256",
          "name": "tokenId",
          "type": "uint256"
        }
      ],
      "name": "getApproved",
      "outputs": [
        {
          "internalType": "address",
          "name": "",
          "type": "address"
        }
      ],
      "stateMutability": "view",
      "type": "function"
    },
    {
      "inputs": [
        {
          "internalType": "uint256",
          "name": "lpId",
          "type": "uint256"
        }
      ],
      "name": "getLP",
      "outputs": [
        {
          "components": [
            {
              "internalType": "uint256[]",
              "name": "nftIds",
              "type": "uint256[]"
            },
            {
              "internalType": "uint256",
              "name": "tokenAmount",
              "type": "uint256"
            },
            {
              "internalType": "uint256",
              "name": "price",
              "type": "uint256"
            },
            {
              "internalType": "address",
              "name": "curve",
              "type": "address"
            },
            {
              "internalType": "uint256",
              "name": "delta",
              "type": "uint256"
            },
            {
              "internalType": "uint256",
              "name": "fee",
              "type": "uint256"
            }
          ],
          "internalType": "struct DataTypes.LiquidityPair",
          "name": "",
          "type": "tuple"
        }
      ],
      "stateMutability": "view",
      "type": "function"
    },
    {
      "inputs": [],
      "name": "getNFT",
      "outputs": [
        {
          "internalType": "address",
          "name": "",
          "type": "address"
        }
      ],
      "stateMutability": "view",
      "type": "function"
    },
    {
      "inputs": [],
      "name": "getToken",
      "outputs": [
        {
          "internalType": "address",
          "name": "",
          "type": "address"
        }
      ],
      "stateMutability": "view",
      "type": "function"
    },
    {
      "inputs": [
        {
          "internalType": "address",
          "name": "owner",
          "type": "address"
        },
        {
          "internalType": "address",
          "name": "operator",
          "type": "address"
        }
      ],
      "name": "isApprovedForAll",
      "outputs": [
        {
          "internalType": "bool",
          "name": "",
          "type": "bool"
        }
      ],
      "stateMutability": "view",
      "type": "function"
    },
    {
      "inputs": [],
      "name": "name",
      "outputs": [
        {
          "internalType": "string",
          "name": "",
          "type": "string"
        }
      ],
      "stateMutability": "view",
      "type": "function"
    },
    {
      "inputs": [
        {
          "internalType": "uint256",
          "name": "nftId",
          "type": "uint256"
        }
      ],
      "name": "nftToLp",
      "outputs": [
        {
          "internalType": "uint256",
          "name": "",
          "type": "uint256"
        }
      ],
      "stateMutability": "view",
      "type": "function"
    },
    {
      "inputs": [
        {
          "internalType": "address",
          "name": "",
          "type": "address"
        },
        {
          "internalType": "address",
          "name": "",
          "type": "address"
        },
        {
          "internalType": "uint256",
          "name": "",
          "type": "uint256"
        },
        {
          "internalType": "bytes",
          "name": "",
          "type": "bytes"
        }
      ],
      "name": "onERC721Received",
      "outputs": [
        {
          "internalType": "bytes4",
          "name": "",
          "type": "bytes4"
        }
      ],
      "stateMutability": "nonpayable",
      "type": "function"
    },
    {
      "inputs": [],
      "name": "owner",
      "outputs": [
        {
          "internalType": "address",
          "name": "",
          "type": "address"
        }
      ],
      "stateMutability": "view",
      "type": "function"
    },
    {
      "inputs": [
        {
          "internalType": "uint256",
          "name": "tokenId",
          "type": "uint256"
        }
      ],
      "name": "ownerOf",
      "outputs": [
        {
          "internalType": "address",
          "name": "",
          "type": "address"
        }
      ],
      "stateMutability": "view",
      "type": "function"
    },
    {
      "inputs": [
        {
          "internalType": "uint256",
          "name": "lpId",
          "type": "uint256"
        }
      ],
      "name": "removeLiquidity",
      "outputs": [],
      "stateMutability": "nonpayable",
      "type": "function"
    },
    {
      "inputs": [
        {
          "internalType": "uint256[]",
          "name": "lpIds",
          "type": "uint256[]"
        }
      ],
      "name": "removeLiquidityBatch",
      "outputs": [],
      "stateMutability": "nonpayable",
      "type": "function"
    },
    {
      "inputs": [],
      "name": "renounceOwnership",
      "outputs": [],
      "stateMutability": "nonpayable",
      "type": "function"
    },
    {
      "inputs": [
        {
          "internalType": "address",
          "name": "from",
          "type": "address"
        },
        {
          "internalType": "address",
          "name": "to",
          "type": "address"
        },
        {
          "internalType": "uint256",
          "name": "tokenId",
          "type": "uint256"
        }
      ],
      "name": "safeTransferFrom",
      "outputs": [],
      "stateMutability": "nonpayable",
      "type": "function"
    },
    {
      "inputs": [
        {
          "internalType": "address",
          "name": "from",
          "type": "address"
        },
        {
          "internalType": "address",
          "name": "to",
          "type": "address"
        },
        {
          "internalType": "uint256",
          "name": "tokenId",
          "type": "uint256"
        },
        {
          "internalType": "bytes",
          "name": "data",
          "type": "bytes"
        }
      ],
      "name": "safeTransferFrom",
      "outputs": [],
      "stateMutability": "nonpayable",
      "type": "function"
    },
    {
      "inputs": [
        {
          "internalType": "address",
          "name": "onBehalfOf",
          "type": "address"
        },
        {
          "internalType": "uint256[]",
          "name": "nftIds",
          "type": "uint256[]"
        },
        {
          "internalType": "uint256[]",
          "name": "liquidityPairs",
          "type": "uint256[]"
        },
        {
          "internalType": "uint256",
          "name": "minimumPrice",
          "type": "uint256"
        }
      ],
      "name": "sell",
      "outputs": [
        {
          "internalType": "uint256",
          "name": "",
          "type": "uint256"
        }
      ],
      "stateMutability": "nonpayable",
      "type": "function"
    },
    {
      "inputs": [
        {
          "internalType": "address",
          "name": "operator",
          "type": "address"
        },
        {
          "internalType": "bool",
          "name": "approved",
          "type": "bool"
        }
      ],
      "name": "setApprovalForAll",
      "outputs": [],
      "stateMutability": "nonpayable",
      "type": "function"
    },
    {
      "inputs": [
        {
          "internalType": "uint256",
          "name": "lpId",
          "type": "uint256"
        },
        {
          "internalType": "uint256",
          "name": "fee",
          "type": "uint256"
        }
      ],
      "name": "setLpFee",
      "outputs": [],
      "stateMutability": "nonpayable",
      "type": "function"
    },
    {
      "inputs": [
        {
          "internalType": "uint256",
          "name": "lpId",
          "type": "uint256"
        },
        {
          "internalType": "uint256",
          "name": "price",
          "type": "uint256"
        }
      ],
      "name": "setLpPrice",
      "outputs": [],
      "stateMutability": "nonpayable",
      "type": "function"
    },
    {
      "inputs": [
        {
          "internalType": "uint256",
          "name": "lpId",
          "type": "uint256"
        },
        {
          "internalType": "address",
          "name": "curve",
          "type": "address"
        },
        {
          "internalType": "uint256",
          "name": "delta",
          "type": "uint256"
        }
      ],
      "name": "setLpPricingCurve",
      "outputs": [],
      "stateMutability": "nonpayable",
      "type": "function"
    },
    {
      "inputs": [
        {
          "internalType": "bool",
          "name": "paused",
          "type": "bool"
        }
      ],
      "name": "setPause",
      "outputs": [],
      "stateMutability": "nonpayable",
      "type": "function"
    },
    {
      "inputs": [
        {
          "internalType": "bytes4",
          "name": "interfaceId",
          "type": "bytes4"
        }
      ],
      "name": "supportsInterface",
      "outputs": [
        {
          "internalType": "bool",
          "name": "",
          "type": "bool"
        }
      ],
      "stateMutability": "view",
      "type": "function"
    },
    {
      "inputs": [],
      "name": "symbol",
      "outputs": [
        {
          "internalType": "string",
          "name": "",
          "type": "string"
        }
      ],
      "stateMutability": "view",
      "type": "function"
    },
    {
      "inputs": [
        {
          "internalType": "uint256",
          "name": "index",
          "type": "uint256"
        }
      ],
      "name": "tokenByIndex",
      "outputs": [
        {
          "internalType": "uint256",
          "name": "",
          "type": "uint256"
        }
      ],
      "stateMutability": "view",
      "type": "function"
    },
    {
      "inputs": [
        {
          "internalType": "address",
          "name": "owner",
          "type": "address"
        },
        {
          "internalType": "uint256",
          "name": "index",
          "type": "uint256"
        }
      ],
      "name": "tokenOfOwnerByIndex",
      "outputs": [
        {
          "internalType": "uint256",
          "name": "",
          "type": "uint256"
        }
      ],
      "stateMutability": "view",
      "type": "function"
    },
    {
      "inputs": [
        {
          "internalType": "uint256",
          "name": "tokenId",
          "type": "uint256"
        }
      ],
      "name": "tokenURI",
      "outputs": [
        {
          "internalType": "string",
          "name": "",
          "type": "string"
        }
      ],
      "stateMutability": "view",
      "type": "function"
    },
    {
      "inputs": [],
      "name": "totalSupply",
      "outputs": [
        {
          "internalType": "uint256",
          "name": "",
          "type": "uint256"
        }
      ],
      "stateMutability": "view",
      "type": "function"
    },
    {
      "inputs": [
        {
          "internalType": "address",
          "name": "from",
          "type": "address"
        },
        {
          "internalType": "address",
          "name": "to",
          "type": "address"
        },
        {
          "internalType": "uint256",
          "name": "tokenId",
          "type": "uint256"
        }
      ],
      "name": "transferFrom",
      "outputs": [],
      "stateMutability": "nonpayable",
      "type": "function"
    },
    {
      "inputs": [
        {
          "internalType": "address",
          "name": "newOwner",
          "type": "address"
        }
      ],
      "name": "transferOwnership",
      "outputs": [],
      "stateMutability": "nonpayable",
      "type": "function"
    }
  ],
  "bytecode": "0x60806040523480156200001157600080fd5b506040516200468d3803806200468d8339810160408190526200003491620002d7565b8181600062000044838262000425565b50600162000053828262000425565b505050620000706200006a620001a360201b60201c565b620001a7565b856001600160a01b031663ca1470ea6040518163ffffffff1660e01b8152600401602060405180830381865afa158015620000af573d6000803e3d6000fd5b505050506040513d601f19601f82011682018060405250810190620000d59190620004f1565b6001600160a01b0316336001600160a01b0316146200014f5760405162461bcd60e51b815260206004820152602c60248201527f54726164696e6720506f6f6c206d75737420626520637265617465642074687260448201526b6f75676820466163746f727960a01b606482015260840160405180910390fd5b600b80546001600160a01b038089166001600160a01b031992831617909255600c8054878416908316179055600d8054928616929091169190911790556200019785620001a7565b50505050505062000518565b3390565b600a80546001600160a01b038381166001600160a01b0319831681179093556040519116919082907f8be0079c531659141344cd1fd0a4f28419497f9722a3daafe3b4186f6b6457e090600090a35050565b6001600160a01b03811681146200020f57600080fd5b50565b634e487b7160e01b600052604160045260246000fd5b600082601f8301126200023a57600080fd5b81516001600160401b038082111562000257576200025762000212565b604051601f8301601f19908116603f0116810190828211818310171562000282576200028262000212565b816040528381526020925086838588010111156200029f57600080fd5b600091505b83821015620002c35785820183015181830184015290820190620002a4565b600093810190920192909252949350505050565b60008060008060008060c08789031215620002f157600080fd5b8651620002fe81620001f9565b60208801519096506200031181620001f9565b60408801519095506200032481620001f9565b60608801519094506200033781620001f9565b60808801519093506001600160401b03808211156200035557600080fd5b620003638a838b0162000228565b935060a08901519150808211156200037a57600080fd5b506200038989828a0162000228565b9150509295509295509295565b600181811c90821680620003ab57607f821691505b602082108103620003cc57634e487b7160e01b600052602260045260246000fd5b50919050565b601f8211156200042057600081815260208120601f850160051c81016020861015620003fb5750805b601f850160051c820191505b818110156200041c5782815560010162000407565b5050505b505050565b81516001600160401b0381111562000441576200044162000212565b620004598162000452845462000396565b84620003d2565b602080601f831160018114620004915760008415620004785750858301515b600019600386901b1c1916600185901b1785556200041c565b600085815260208120601f198616915b82811015620004c257888601518255948401946001909101908401620004a1565b5085821015620004e15787850151600019600388901b60f8161c191681555b5050505050600190811b01905550565b6000602082840312156200050457600080fd5b81516200051181620001f9565b9392505050565b61416580620005286000396000f3fe608060405234801561001057600080fd5b50600436106101fb5760003560e01c80636d207b1a1161011a578063a22cb465116100ad578063bf02c6541161007c578063bf02c6541461044e578063c87b56dd14610461578063cdd3f29814610474578063e985e9c514610494578063f2fde38b146104d057600080fd5b8063a22cb46514610402578063b31f0d6214610415578063b88d4fde14610428578063bedb86fb1461043b57600080fd5b806388a6360e116100e957806388a6360e146103c55780638da5cb5b146103d657806395d89b41146103e75780639c8f9f23146103ef57600080fd5b80636d207b1a1461038457806370a0823114610397578063715018a6146103aa57806376be1aa8146103b257600080fd5b80632f745c59116101925780634f6ccce7116101615780634f6ccce71461032b5780635460d8491461033e57806356d131ce1461035e5780636352211e1461037157600080fd5b80632f745c59146102df57806342842e0e146102f25780634765f2451461030557806349591b511461031857600080fd5b8063150b7a02116101ce578063150b7a021461027d57806318160ddd146102a957806321df0da7146102bb57806323b872dd146102cc57600080fd5b806301ffc9a71461020057806306fdde0314610228578063081812fc1461023d578063095ea7b314610268575b600080fd5b61021361020e36600461377b565b6104e3565b60405190151581526020015b60405180910390f35b6102306104f4565b60405161021f91906137e8565b61025061024b3660046137fb565b610586565b6040516001600160a01b03909116815260200161021f565b61027b610276366004613829565b6105ad565b005b61029061028b36600461389c565b6106c7565b6040516001600160e01b0319909116815260200161021f565b6008545b60405190815260200161021f565b600c546001600160a01b0316610250565b61027b6102da366004613960565b6106d8565b6102ad6102ed366004613829565b610709565b61027b610300366004613960565b61079f565b61027b6103133660046139a1565b6107ba565b6102ad610326366004613a38565b610849565b6102ad6103393660046137fb565b6111d7565b6102ad61034c3660046137fb565b6000908152600f602052604090205490565b61027b61036c366004613ab6565b61126a565b61025061037f3660046137fb565b61131d565b61027b610392366004613add565b61137d565b6102ad6103a5366004613b12565b6113eb565b61027b611471565b61027b6103c03660046139a1565b611485565b600d546001600160a01b0316610250565b600a546001600160a01b0316610250565b610230611508565b61027b6103fd3660046137fb565b611517565b61027b610410366004613b3d565b611724565b6102ad610423366004613b76565b61172f565b61027b61043636600461389c565b612022565b61027b610449366004613bcf565b61205a565b61027b61045c366004613bec565b612080565b61023061046f3660046137fb565b612453565b6104876104823660046137fb565b6124c7565b60405161021f9190613cb1565b6102136104a2366004613d13565b6001600160a01b03918216600090815260056020908152604080832093909416825291909152205460ff1690565b61027b6104de366004613b12565b61257a565b60006104ee826125f3565b92915050565b60606000805461050390613d41565b80601f016020809104026020016040519081016040528092919081815260200182805461052f90613d41565b801561057c5780601f106105515761010080835404028352916020019161057c565b820191906000526020600020905b81548152906001019060200180831161055f57829003601f168201915b5050505050905090565b600061059182612618565b506000908152600460205260409020546001600160a01b031690565b60006105b88261131d565b9050806001600160a01b0316836001600160a01b03160361062a5760405162461bcd60e51b815260206004820152602160248201527f4552433732313a20617070726f76616c20746f2063757272656e74206f776e656044820152603960f91b60648201526084015b60405180910390fd5b336001600160a01b0382161480610646575061064681336104a2565b6106b85760405162461bcd60e51b815260206004820152603d60248201527f4552433732313a20617070726f76652063616c6c6572206973206e6f7420746f60448201527f6b656e206f776e6572206f7220617070726f76656420666f7220616c6c0000006064820152608401610621565b6106c28383612677565b505050565b630a85bd0160e11b5b949350505050565b6106e233826126e5565b6106fe5760405162461bcd60e51b815260040161062190613d7b565b6106c2838383612763565b6000610714836113eb565b82106107765760405162461bcd60e51b815260206004820152602b60248201527f455243373231456e756d657261626c653a206f776e657220696e646578206f7560448201526a74206f6620626f756e647360a81b6064820152608401610621565b506001600160a01b03919091166000908152600660209081526040808320938352929052205490565b6106c283838360405180602001604052806000815250612022565b6107c38261131d565b6001600160a01b0316336001600160a01b0316146107f35760405162461bcd60e51b815260040161062190613dc8565b6000828152600e60205260409081902060050182905551829033907f6876b53468ceb1db2a0a6fe84eef2468841e8235b3bbc6d406685e95e190f3989061083d9085815260200190565b60405180910390a35050565b600b54600090600160a01b900460ff16156108765760405162461bcd60e51b815260040161062190613df6565b82518451146108de5760405162461bcd60e51b815260206004820152602e60248201527f4e46547320616e64204c6971756964697479205061697273206d75737420686160448201526d0ecca40e6c2daca40d8cadccee8d60931b6064820152608401610621565b600084511161092f5760405162461bcd60e51b815260206004820152601d60248201527f4e65656420746f2073656c6c206174206c65617374206f6e65204e46540000006044820152606401610621565b6001600160a01b0385163314610a3457600b60009054906101000a90046001600160a01b03166001600160a01b031663725c9c496040518163ffffffff1660e01b8152600401602060405180830381865afa158015610992573d6000803e3d6000fd5b505050506040513d601f19601f820116820180604052508101906109b69190613e1e565b6001600160a01b0316336001600160a01b031614610a345760405162461bcd60e51b815260206004820152603560248201527f4f6e6c792053776170526f757465722063616e2073656c6c206f6e20626568616044820152746c66206f6620616e6f74686572206164647265737360581b6064820152608401610621565b6000806000806000610a446136a8565b60005b8a51811015610ed057610aa86040518060400160405280601a81526020017f5472616e73666572696e67204e465420257320746f20706f6f6c0000000000008152508c8381518110610a9b57610a9b613e3b565b60200260200101516128d4565b600d548b516001600160a01b03909116906342842e0e908e9030908f9086908110610ad557610ad5613e3b565b60200260200101516040518463ffffffff1660e01b8152600401610afb93929190613e51565b600060405180830381600087803b158015610b1557600080fd5b505af1158015610b29573d6000803e3d6000fd5b5050505060008a8281518110610b4157610b41613e3b565b60200260200101519050600e60008281526020019081526020016000206040518060c001604052908160008201805480602002602001604051908101604052809291908181526020018280548015610bb857602002820191906000526020600020905b815481526020019060010190808311610ba4575b505050918352505060018201546020820152600282015460408083019190915260038301546001600160a01b031660608301526004830154608083015260059092015460a0918201528201519082015191945061271091610c199190613e8b565b610c239190613ea2565b9650612710600b60009054906101000a90046001600160a01b03166001600160a01b031663ca1470ea6040518163ffffffff1660e01b8152600401602060405180830381865afa158015610c7b573d6000803e3d6000fd5b505050506040513d601f19601f82011682018060405250810190610c9f9190613e1e565b6001600160a01b031663a5a410316040518163ffffffff1660e01b8152600401602060405180830381865afa158015610cdc573d6000803e3d6000fd5b505050506040513d601f19601f82011682018060405250810190610d009190613ec4565b610d0a9089613e8b565b610d149190613ea2565b9350826040015188610d269190613edd565b9750610d328787613edd565b6000828152600e602052604090208d51919750908d9084908110610d5857610d58613e3b565b6020908102919091018101518254600181018455600093845291909220015560408301518490610d89908990613ef0565b610d939190613edd565b6000828152600e602052604081206001018054909190610db4908490613ef0565b9091555050606083015160408085015160808601519151633698f96560e11b81526001600160a01b0390931692636d31f2ca92610dfd9291600401918252602082015260400190565b602060405180830381865afa158015610e1a573d6000803e3d6000fd5b505050506040513d601f19601f82011682018060405250810190610e3e9190613ec4565b6000828152600e60208181526040808420600281019590955580518082019091528581529285905290815291549091820190610e7c90600190613ef0565b815250600f60008e8581518110610e9557610e95613e3b565b602090810291909101810151825281810192909252604001600020825181559101516001909101555080610ec881613f03565b915050610a47565b50610edb8487613ef0565b925087831015610f2d5760405162461bcd60e51b815260206004820152601e60248201527f5072696365206c6f776572207468616e206d696e696d756d20707269636500006044820152606401610621565b610f4433600c546001600160a01b03169085612919565b600b546040805163c891317360e01b815290516110aa926001600160a01b03169163c89131739160048083019260209291908290030181865afa158015610f8f573d6000803e3d6000fd5b505050506040513d601f19601f82011682018060405250810190610fb39190613e1e565b600b546040805163650a387560e11b81529051612710926001600160a01b03169163ca1470ea9160048083019260209291908290030181865afa158015610ffe573d6000803e3d6000fd5b505050506040513d601f19601f820116820180604052508101906110229190613e1e565b6001600160a01b031663a5a410316040518163ffffffff1660e01b8152600401602060405180830381865afa15801561105f573d6000803e3d6000fd5b505050506040513d601f19601f820116820180604052508101906110839190613ec4565b61108d9088613e8b565b6110979190613ea2565b600c546001600160a01b03169190612919565b600b60009054906101000a90046001600160a01b03166001600160a01b031663c89131736040518163ffffffff1660e01b8152600401602060405180830381865afa1580156110fd573d6000803e3d6000fd5b505050506040513d601f19601f820116820180604052508101906111219190613e1e565b600c546040516354b94c2f60e11b81526001600160a01b03918216600482015291169063a972985e90602401600060405180830381600087803b15801561116757600080fd5b505af115801561117b573d6000803e3d6000fd5b505050506111863390565b6001600160a01b03167feb3c528adebc70d317bef09706905761642981ebf9def9aafdc40f404e49346a8b856040516111c0929190613f1c565b60405180910390a250909998505050505050505050565b60006111e260085490565b82106112455760405162461bcd60e51b815260206004820152602c60248201527f455243373231456e756d657261626c653a20676c6f62616c20696e646578206f60448201526b7574206f6620626f756e647360a01b6064820152608401610621565b6008828154811061125857611258613e3b565b90600052602060002001549050919050565b6112738361131d565b6001600160a01b0316336001600160a01b0316146112a35760405162461bcd60e51b815260040161062190613dc8565b6000838152600e60209081526040918290206003810180546001600160a01b0319166001600160a01b03871690811790915560049091018490558251908152908101839052849133917f3d172f139a404912c8ac9294b8c5629d8e27a95381da174d83481b3f80bcc2ea91015b60405180910390a3505050565b6000818152600260205260408120546001600160a01b0316806104ee5760405162461bcd60e51b8152602060048201526018602482015277115490cdcc8c4e881a5b9d985b1a59081d1bdad95b88125160421b6044820152606401610621565b600b54600160a01b900460ff16156113a75760405162461bcd60e51b815260040161062190613df6565b60005b81518110156113e7576113d58282815181106113c8576113c8613e3b565b6020026020010151611517565b806113df81613f03565b9150506113aa565b5050565b60006001600160a01b0382166114555760405162461bcd60e51b815260206004820152602960248201527f4552433732313a2061646472657373207a65726f206973206e6f7420612076616044820152683634b21037bbb732b960b91b6064820152608401610621565b506001600160a01b031660009081526003602052604090205490565b61147961297c565b61148360006129d6565b565b61148e8261131d565b6001600160a01b0316336001600160a01b0316146114be5760405162461bcd60e51b815260040161062190613dc8565b6000828152600e60205260409081902060020182905551829033907f0739aefc0af6b2cdb25ad872ff5bc9f53918c4af56cccce362e364571dfb5d4e9061083d9085815260200190565b60606001805461050390613d41565b600b54600160a01b900460ff16156115415760405162461bcd60e51b815260040161062190613df6565b61154a8161131d565b6001600160a01b0316336001600160a01b03161461157a5760405162461bcd60e51b815260040161062190613dc8565b60005b6000828152600e602052604090205481101561167857600d546001600160a01b03166342842e0e30336000868152600e602052604090208054869081106115c6576115c6613e3b565b90600052602060002001546040518463ffffffff1660e01b81526004016115ef93929190613e51565b600060405180830381600087803b15801561160957600080fd5b505af115801561161d573d6000803e3d6000fd5b5050506000838152600e602052604081208054600f93508490811061164457611644613e3b565b600091825260208083209091015483528201929092526040018120818155600101558061167081613f03565b91505061157d565b506116a2336000838152600e6020526040902060010154600c546001600160a01b03169190612919565b6000818152600e60205260408120906116bb82826136e7565b50600060018201819055600282018190556003820180546001600160a01b0319169055600482018190556005909101556116f481612a28565b604051819033907fdfdd120ded9b7afc0c23dd5310e93aaa3e1c3b9f75af9b805fab3030842439f290600090a350565b6113e7338383612acb565b600b54600090600160a01b900460ff161561175c5760405162461bcd60e51b815260040161062190613df6565b60008351116117ad5760405162461bcd60e51b815260206004820152601c60248201527f4e65656420746f20627579206174206c65617374206f6e65204e4654000000006044820152606401610621565b60008060008060008060006117c06136a8565b60005b8b51811015611d3657600f60008d83815181106117e2576117e2613e3b565b60200260200101518152602001908152602001600020600001549550600e60008781526020019081526020016000206040518060c00160405290816000820180548060200260200160405190810160405280929190818152602001828054801561186b57602002820191906000526020600020905b815481526020019060010190808311611857575b5050505050815260200160018201548152602001600282015481526020016003820160009054906101000a90046001600160a01b03166001600160a01b03166001600160a01b0316815260200160048201548152602001600582015481525050915081606001516001600160a01b031663bb1690e2836040015184608001516040518363ffffffff1660e01b8152600401611910929190918252602082015260400190565b602060405180830381865afa15801561192d573d6000803e3d6000fd5b505050506040513d601f19601f820116820180604052508101906119519190613ec4565b97506127108260a00151896119669190613e8b565b6119709190613ea2565b9450612710600b60009054906101000a90046001600160a01b03166001600160a01b031663ca1470ea6040518163ffffffff1660e01b8152600401602060405180830381865afa1580156119c8573d6000803e3d6000fd5b505050506040513d601f19601f820116820180604052508101906119ec9190613e1e565b6001600160a01b031663a5a410316040518163ffffffff1660e01b8152600401602060405180830381865afa158015611a29573d6000803e3d6000fd5b505050506040513d601f19601f82011682018060405250810190611a4d9190613ec4565b611a579087613e8b565b611a619190613ea2565b6000878152600e60205260409020600281018a9055805491945090611a8890600190613ef0565b81548110611a9857611a98613e3b565b9060005260206000200154600e6000888152602001908152602001600020600001600f60008f8581518110611acf57611acf613e3b565b602002602001015181526020019081526020016000206001015481548110611af957611af9613e3b565b6000918252602080832090910192909255878152600e90915260409020805480611b2557611b25613f3e565b60019003818190600052602060002001600090559055828589611b489190613edd565b611b529190613ef0565b6000878152600e602052604081206001018054909190611b73908490613edd565b90915550611b839050888a613edd565b9850611b8f8585613edd565b9350611beb6040518060400160405280600981526020016804e465420546f204c560bc1b815250600f60008f8581518110611bcc57611bcc613e3b565b60200260200101518152602001908152602001600020600001546128d4565b600f60008d8381518110611c0157611c01613e3b565b6020026020010151815260200190815260200160002060008082016000905560018201600090555050611c5f6040518060400160405280601381526020017229b2b73234b7339027232a103a37903ab9b2b960691b8152508e612b91565b611c936040518060400160405280600681526020016513919508125160d21b8152508d8381518110610a9b57610a9b613e3b565b600d60009054906101000a90046001600160a01b03166001600160a01b03166342842e0e308f8f8581518110611ccb57611ccb613e3b565b60200260200101516040518463ffffffff1660e01b8152600401611cf193929190613e51565b600060405180830381600087803b158015611d0b57600080fd5b505af1158015611d1f573d6000803e3d6000fd5b505050508080611d2e90613f03565b9150506117c3565b50611d418389613edd565b955089861115611d935760405162461bcd60e51b815260206004820152601f60248201527f507269636520686967686572207468616e206d6178696d756d207072696365006044820152606401610621565b611dab33600c546001600160a01b0316903089612bd6565b600b546040805163c891317360e01b81529051611ef4926001600160a01b03169163c89131739160048083019260209291908290030181865afa158015611df6573d6000803e3d6000fd5b505050506040513d601f19601f82011682018060405250810190611e1a9190613e1e565b600b546040805163650a387560e11b81529051612710926001600160a01b03169163ca1470ea9160048083019260209291908290030181865afa158015611e65573d6000803e3d6000fd5b505050506040513d601f19601f82011682018060405250810190611e899190613e1e565b6001600160a01b031663a5a410316040518163ffffffff1660e01b8152600401602060405180830381865afa158015611ec6573d6000803e3d6000fd5b505050506040513d601f19601f82011682018060405250810190611eea9190613ec4565b61108d9087613e8b565b600b60009054906101000a90046001600160a01b03166001600160a01b031663c89131736040518163ffffffff1660e01b8152600401602060405180830381865afa158015611f47573d6000803e3d6000fd5b505050506040513d601f19601f82011682018060405250810190611f6b9190613e1e565b600c546040516354b94c2f60e11b81526001600160a01b03918216600482015291169063a972985e90602401600060405180830381600087803b158015611fb157600080fd5b505af1158015611fc5573d6000803e3d6000fd5b50505050611fd03390565b6001600160a01b03167f0306912acbf130bc61cce94222a394a64e258433196a3d3679a9bbfb8973f7738c8860405161200a929190613f1c565b60405180910390a250939a9950505050505050505050565b61202c33836126e5565b6120485760405162461bcd60e51b815260040161062190613d7b565b61205484848484612bf7565b50505050565b61206261297c565b600b8054911515600160a01b0260ff60a01b19909216919091179055565b600b54600160a01b900460ff16156120aa5760405162461bcd60e51b815260040161062190613df6565b60008511806120ba575060008651115b6120ff5760405162461bcd60e51b81526020600482015260166024820152754465706f7369742063616e277420626520656d70747960501b6044820152606401610621565b6000841161215b5760405162461bcd60e51b8152602060048201526024808201527f496e697469616c207072696365206d75737420626520677265617465722074686044820152630616e20360e41b6064820152608401610621565b6040516301ffc9a760e01b8152631ac4ec4560e31b60048201526001600160a01b038416906301ffc9a790602401602060405180830381865afa1580156121a6573d6000803e3d6000fd5b505050506040513d601f19601f820116820180604052508101906121ca9190613f54565b6122225760405162461bcd60e51b8152602060048201526024808201527f4375727665206d75737420626520612076616c696420637572766520636f6e746044820152631c9858dd60e21b6064820152608401610621565b60005b865181101561231257600d546001600160a01b03166342842e0e33308a858151811061225357612253613e3b565b60200260200101516040518463ffffffff1660e01b815260040161227993929190613e51565b600060405180830381600087803b15801561229357600080fd5b505af11580156122a7573d6000803e3d6000fd5b505050506040518060400160405280601054815260200182815250600f60008984815181106122d8576122d8613e3b565b602090810291909101810151825281810192909252604001600020825181559101516001909101558061230a81613f03565b915050612225565b5061232b33600c546001600160a01b0316903088612bd6565b6040805160c08101825287815260208082018890528183018790526001600160a01b03861660608301526080820185905260a082018490526010546000908152600e82529290922081518051929391926123889284920190613705565b50602082015160018201556040820151600282015560608201516003820180546001600160a01b0319166001600160a01b039092169190911790556080820151600482015560a0909101516005909101556010546123e7908890612c2a565b601054876001600160a01b03167f3638cde15cf70057c6e625bd7b75808aa739ff9b0d015cf1c02093729926c06288888888888860405161242d96959493929190613f71565b60405180910390a36010805490600061244583613f03565b919050555050505050505050565b606061245e82612618565b600061247560408051602081019091526000815290565b9050600081511161249557604051806020016040528060008152506124c0565b8061249f84612c44565b6040516020016124b0929190613fb6565b6040516020818303038152906040525b9392505050565b6124cf6136a8565b6000828152600e60209081526040918290208251815460e09381028201840190945260c08101848152909391928492849184018282801561252f57602002820191906000526020600020905b81548152602001906001019080831161251b575b5050509183525050600182015460208201526002820154604082015260038201546001600160a01b031660608201526004820154608082015260059091015460a09091015292915050565b61258261297c565b6001600160a01b0381166125e75760405162461bcd60e51b815260206004820152602660248201527f4f776e61626c653a206e6577206f776e657220697320746865207a65726f206160448201526564647265737360d01b6064820152608401610621565b6125f0816129d6565b50565b60006001600160e01b0319821663780e9d6360e01b14806104ee57506104ee82612cd7565b6000818152600260205260409020546001600160a01b03166125f05760405162461bcd60e51b8152602060048201526018602482015277115490cdcc8c4e881a5b9d985b1a59081d1bdad95b88125160421b6044820152606401610621565b600081815260046020526040902080546001600160a01b0319166001600160a01b03841690811790915581906126ac8261131d565b6001600160a01b03167f8c5be1e5ebec7d5bd14f71427d1e84f3dd0314c0f7b2291e5b200ac8c7c3b92560405160405180910390a45050565b6000806126f18361131d565b9050806001600160a01b0316846001600160a01b0316148061273857506001600160a01b0380821660009081526005602090815260408083209388168352929052205460ff165b806106d05750836001600160a01b031661275184610586565b6001600160a01b031614949350505050565b826001600160a01b03166127768261131d565b6001600160a01b03161461279c5760405162461bcd60e51b815260040161062190613fe5565b6001600160a01b0382166127fe5760405162461bcd60e51b8152602060048201526024808201527f4552433732313a207472616e7366657220746f20746865207a65726f206164646044820152637265737360e01b6064820152608401610621565b61280b8383836001612d27565b826001600160a01b031661281e8261131d565b6001600160a01b0316146128445760405162461bcd60e51b815260040161062190613fe5565b600081815260046020908152604080832080546001600160a01b03199081169091556001600160a01b0387811680865260038552838620805460001901905590871680865283862080546001019055868652600290945282852080549092168417909155905184937fddf252ad1be2c89b69c2b068fc378daa952ba7f163c4a11628f55a4df523b3ef91a4505050565b6113e782826040516024016128ea92919061402a565b60408051601f198184030181529190526020810180516001600160e01b0316632d839cb360e21b179052612d33565b6040516001600160a01b0383166024820152604481018290526106c290849063a9059cbb60e01b906064015b60408051601f198184030181529190526020810180516001600160e01b03166001600160e01b031990931692909217909152612d54565b600a546001600160a01b031633146114835760405162461bcd60e51b815260206004820181905260248201527f4f776e61626c653a2063616c6c6572206973206e6f7420746865206f776e65726044820152606401610621565b600a80546001600160a01b038381166001600160a01b0319831681179093556040519116919082907f8be0079c531659141344cd1fd0a4f28419497f9722a3daafe3b4186f6b6457e090600090a35050565b6000612a338261131d565b9050612a43816000846001612d27565b612a4c8261131d565b600083815260046020908152604080832080546001600160a01b03199081169091556001600160a01b0385168085526003845282852080546000190190558785526002909352818420805490911690555192935084927fddf252ad1be2c89b69c2b068fc378daa952ba7f163c4a11628f55a4df523b3ef908390a45050565b816001600160a01b0316836001600160a01b031603612b2c5760405162461bcd60e51b815260206004820152601960248201527f4552433732313a20617070726f766520746f2063616c6c6572000000000000006044820152606401610621565b6001600160a01b03838116600081815260056020908152604080832094871680845294825291829020805460ff191686151590811790915591519182527f17307eab39ab6107e8899845ad3d59bd9653f200f220920489ca2b5937696c319101611310565b6113e78282604051602401612ba792919061403d565b60408051601f198184030181529190526020810180516001600160e01b031663319af33360e01b179052612d33565b612054846323b872dd60e01b85858560405160240161294593929190613e51565b612c02848484612763565b612c0e84848484612e26565b6120545760405162461bcd60e51b815260040161062190614067565b6113e7828260405180602001604052806000815250612f24565b60606000612c5183612f57565b600101905060008167ffffffffffffffff811115612c7157612c71613855565b6040519080825280601f01601f191660200182016040528015612c9b576020820181803683370190505b5090508181016020015b600019016f181899199a1a9b1b9c1cb0b131b232b360811b600a86061a8153600a8504945084612ca557509392505050565b60006001600160e01b031982166380ac58cd60e01b1480612d0857506001600160e01b03198216635b5e139f60e01b145b806104ee57506301ffc9a760e01b6001600160e01b03198316146104ee565b6120548484848461302f565b80516a636f6e736f6c652e6c6f67602083016000808483855afa5050505050565b6000612da9826040518060400160405280602081526020017f5361666545524332303a206c6f772d6c6576656c2063616c6c206661696c6564815250856001600160a01b031661316f9092919063ffffffff16565b8051909150156106c25780806020019051810190612dc79190613f54565b6106c25760405162461bcd60e51b815260206004820152602a60248201527f5361666545524332303a204552433230206f7065726174696f6e20646964206e6044820152691bdd081cdd58d8d9595960b21b6064820152608401610621565b60006001600160a01b0384163b15612f1c57604051630a85bd0160e11b81526001600160a01b0385169063150b7a0290612e6a9033908990889088906004016140b9565b6020604051808303816000875af1925050508015612ea5575060408051601f3d908101601f19168201909252612ea2918101906140f6565b60015b612f02573d808015612ed3576040519150601f19603f3d011682016040523d82523d6000602084013e612ed8565b606091505b508051600003612efa5760405162461bcd60e51b815260040161062190614067565b805181602001fd5b6001600160e01b031916630a85bd0160e11b1490506106d0565b5060016106d0565b612f2e838361317e565b612f3b6000848484612e26565b6106c25760405162461bcd60e51b815260040161062190614067565b60008072184f03e93ff9f4daa797ed6e38ed64bf6a1f0160401b8310612f965772184f03e93ff9f4daa797ed6e38ed64bf6a1f0160401b830492506040015b6d04ee2d6d415b85acef81000000008310612fc2576d04ee2d6d415b85acef8100000000830492506020015b662386f26fc100008310612fe057662386f26fc10000830492506010015b6305f5e1008310612ff8576305f5e100830492506008015b612710831061300c57612710830492506004015b6064831061301e576064830492506002015b600a83106104ee5760010192915050565b61303b84848484613317565b60018111156130aa5760405162461bcd60e51b815260206004820152603560248201527f455243373231456e756d657261626c653a20636f6e7365637574697665207472604482015274185b9cd9995c9cc81b9bdd081cdd5c1c1bdc9d1959605a1b6064820152608401610621565b816001600160a01b0385166131065761310181600880546000838152600960205260408120829055600182018355919091527ff3f7a9fe364faab93b216da50a3214154f22a0a2b415b23a84c8169e8b636ee30155565b613129565b836001600160a01b0316856001600160a01b03161461312957613129858261339f565b6001600160a01b038416613145576131408161343c565b613168565b846001600160a01b0316846001600160a01b0316146131685761316884826134eb565b5050505050565b60606106d0848460008561352f565b6001600160a01b0382166131d45760405162461bcd60e51b815260206004820181905260248201527f4552433732313a206d696e7420746f20746865207a65726f20616464726573736044820152606401610621565b6000818152600260205260409020546001600160a01b0316156132395760405162461bcd60e51b815260206004820152601c60248201527f4552433732313a20746f6b656e20616c7265616479206d696e746564000000006044820152606401610621565b613247600083836001612d27565b6000818152600260205260409020546001600160a01b0316156132ac5760405162461bcd60e51b815260206004820152601c60248201527f4552433732313a20746f6b656e20616c7265616479206d696e746564000000006044820152606401610621565b6001600160a01b038216600081815260036020908152604080832080546001019055848352600290915280822080546001600160a01b0319168417905551839291907fddf252ad1be2c89b69c2b068fc378daa952ba7f163c4a11628f55a4df523b3ef908290a45050565b6001811115612054576001600160a01b0384161561335d576001600160a01b03841660009081526003602052604081208054839290613357908490613ef0565b90915550505b6001600160a01b03831615612054576001600160a01b03831660009081526003602052604081208054839290613394908490613edd565b909155505050505050565b600060016133ac846113eb565b6133b69190613ef0565b600083815260076020526040902054909150808214613409576001600160a01b03841660009081526006602090815260408083208584528252808320548484528184208190558352600790915290208190555b5060009182526007602090815260408084208490556001600160a01b039094168352600681528383209183525290812055565b60085460009061344e90600190613ef0565b6000838152600960205260408120546008805493945090928490811061347657613476613e3b565b90600052602060002001549050806008838154811061349757613497613e3b565b60009182526020808320909101929092558281526009909152604080822084905585825281205560088054806134cf576134cf613f3e565b6001900381819060005260206000200160009055905550505050565b60006134f6836113eb565b6001600160a01b039093166000908152600660209081526040808320868452825280832085905593825260079052919091209190915550565b6060824710156135905760405162461bcd60e51b815260206004820152602660248201527f416464726573733a20696e73756666696369656e742062616c616e636520666f6044820152651c8818d85b1b60d21b6064820152608401610621565b600080866001600160a01b031685876040516135ac9190614113565b60006040518083038185875af1925050503d80600081146135e9576040519150601f19603f3d011682016040523d82523d6000602084013e6135ee565b606091505b50915091506135ff8783838761360a565b979650505050505050565b60608315613679578251600003613672576001600160a01b0385163b6136725760405162461bcd60e51b815260206004820152601d60248201527f416464726573733a2063616c6c20746f206e6f6e2d636f6e74726163740000006044820152606401610621565b50816106d0565b6106d0838381511561368e5781518083602001fd5b8060405162461bcd60e51b815260040161062191906137e8565b6040518060c0016040528060608152602001600081526020016000815260200160006001600160a01b0316815260200160008152602001600081525090565b50805460008255906000526020600020908101906125f09190613750565b828054828255906000526020600020908101928215613740579160200282015b82811115613740578251825591602001919060010190613725565b5061374c929150613750565b5090565b5b8082111561374c5760008155600101613751565b6001600160e01b0319811681146125f057600080fd5b60006020828403121561378d57600080fd5b81356124c081613765565b60005b838110156137b357818101518382015260200161379b565b50506000910152565b600081518084526137d4816020860160208601613798565b601f01601f19169290920160200192915050565b6020815260006124c060208301846137bc565b60006020828403121561380d57600080fd5b5035919050565b6001600160a01b03811681146125f057600080fd5b6000806040838503121561383c57600080fd5b823561384781613814565b946020939093013593505050565b634e487b7160e01b600052604160045260246000fd5b604051601f8201601f1916810167ffffffffffffffff8111828210171561389457613894613855565b604052919050565b600080600080608085870312156138b257600080fd5b84356138bd81613814565b93506020858101356138ce81613814565b935060408601359250606086013567ffffffffffffffff808211156138f257600080fd5b818801915088601f83011261390657600080fd5b81358181111561391857613918613855565b61392a601f8201601f1916850161386b565b9150808252898482850101111561394057600080fd5b808484018584013760008482840101525080935050505092959194509250565b60008060006060848603121561397557600080fd5b833561398081613814565b9250602084013561399081613814565b929592945050506040919091013590565b600080604083850312156139b457600080fd5b50508035926020909101359150565b600082601f8301126139d457600080fd5b8135602067ffffffffffffffff8211156139f0576139f0613855565b8160051b6139ff82820161386b565b9283528481018201928281019087851115613a1957600080fd5b83870192505b848310156135ff57823582529183019190830190613a1f565b60008060008060808587031215613a4e57600080fd5b8435613a5981613814565b9350602085013567ffffffffffffffff80821115613a7657600080fd5b613a82888389016139c3565b94506040870135915080821115613a9857600080fd5b50613aa5878288016139c3565b949793965093946060013593505050565b600080600060608486031215613acb57600080fd5b83359250602084013561399081613814565b600060208284031215613aef57600080fd5b813567ffffffffffffffff811115613b0657600080fd5b6106d0848285016139c3565b600060208284031215613b2457600080fd5b81356124c081613814565b80151581146125f057600080fd5b60008060408385031215613b5057600080fd5b8235613b5b81613814565b91506020830135613b6b81613b2f565b809150509250929050565b600080600060608486031215613b8b57600080fd5b8335613b9681613814565b9250602084013567ffffffffffffffff811115613bb257600080fd5b613bbe868287016139c3565b925050604084013590509250925092565b600060208284031215613be157600080fd5b81356124c081613b2f565b600080600080600080600060e0888a031215613c0757600080fd5b8735613c1281613814565b9650602088013567ffffffffffffffff811115613c2e57600080fd5b613c3a8a828b016139c3565b96505060408801359450606088013593506080880135613c5981613814565b9699959850939692959460a0840135945060c09093013592915050565b600081518084526020808501945080840160005b83811015613ca657815187529582019590820190600101613c8a565b509495945050505050565b602081526000825160c06020840152613ccd60e0840182613c76565b9050602084015160408401526040840151606084015260018060a01b036060850151166080840152608084015160a084015260a084015160c08401528091505092915050565b60008060408385031215613d2657600080fd5b8235613d3181613814565b91506020830135613b6b81613814565b600181811c90821680613d5557607f821691505b602082108103613d7557634e487b7160e01b600052602260045260246000fd5b50919050565b6020808252602d908201527f4552433732313a2063616c6c6572206973206e6f7420746f6b656e206f776e6560408201526c1c881bdc88185c1c1c9bdd9959609a1b606082015260800190565b60208082526014908201527326bab9ba1037bbb7102628103837b9b4ba34b7b760611b604082015260600190565b6020808252600e908201526d141bdbdb081a5cc81c185d5cd95960921b604082015260600190565b600060208284031215613e3057600080fd5b81516124c081613814565b634e487b7160e01b600052603260045260246000fd5b6001600160a01b039384168152919092166020820152604081019190915260600190565b634e487b7160e01b600052601160045260246000fd5b80820281158282048414176104ee576104ee613e75565b600082613ebf57634e487b7160e01b600052601260045260246000fd5b500490565b600060208284031215613ed657600080fd5b5051919050565b808201808211156104ee576104ee613e75565b818103818111156104ee576104ee613e75565b600060018201613f1557613f15613e75565b5060010190565b604081526000613f2f6040830185613c76565b90508260208301529392505050565b634e487b7160e01b600052603160045260246000fd5b600060208284031215613f6657600080fd5b81516124c081613b2f565b60c081526000613f8460c0830189613c76565b60208301979097525060408101949094526001600160a01b03929092166060840152608083015260a090910152919050565b60008351613fc8818460208801613798565b835190830190613fdc818360208801613798565b01949350505050565b60208082526025908201527f4552433732313a207472616e736665722066726f6d20696e636f72726563742060408201526437bbb732b960d91b606082015260800190565b604081526000613f2f60408301856137bc565b60408152600061405060408301856137bc565b905060018060a01b03831660208301529392505050565b60208082526032908201527f4552433732313a207472616e7366657220746f206e6f6e20455243373231526560408201527131b2b4bb32b91034b6b83632b6b2b73a32b960711b606082015260800190565b6001600160a01b03858116825284166020820152604081018390526080606082018190526000906140ec908301846137bc565b9695505050505050565b60006020828403121561410857600080fd5b81516124c081613765565b60008251614125818460208701613798565b919091019291505056fea2646970667358221220cd9082a7bc29c92342589582ae6c625fdd8867646b1eb798d9e13d4100b12a3864736f6c63430008110033",
  "linkReferences": {},
  "deployedLinkReferences": {}
}