{
  "_format": "hh-sol-artifact-1",
  "contractName": "TradingPool",
  "sourceName": "contracts/protocol/Swap/TradingPool.sol",
  "abi": [
    {
      "inputs": [
        {
          "internalType": "contract IAddressesProvider",
          "name": "addressProvider",
          "type": "address"
        },
        {
          "internalType": "address",
          "name": "owner",
          "type": "address"
        },
        {
          "internalType": "contract IERC20",
          "name": "token",
          "type": "address"
        },
        {
          "internalType": "address",
          "name": "nft",
          "type": "address"
        },
        {
          "internalType": "uint256",
          "name": "defaultSwapFee",
          "type": "uint256"
        },
        {
          "internalType": "string",
          "name": "name",
          "type": "string"
        },
        {
          "internalType": "string",
          "name": "symbol",
          "type": "string"
        }
      ],
      "stateMutability": "nonpayable",
      "type": "constructor"
    },
    {
      "anonymous": false,
      "inputs": [
        {
          "indexed": true,
          "internalType": "address",
          "name": "user",
          "type": "address"
        },
        {
          "indexed": true,
          "internalType": "uint256",
          "name": "id",
          "type": "uint256"
        },
        {
          "indexed": false,
          "internalType": "uint256[]",
          "name": "nftIds",
          "type": "uint256[]"
        },
        {
          "indexed": false,
          "internalType": "uint256",
          "name": "tokenAmount",
          "type": "uint256"
        },
        {
          "indexed": false,
          "internalType": "address",
          "name": "curve",
          "type": "address"
        },
        {
          "indexed": false,
          "internalType": "uint256",
          "name": "delta",
          "type": "uint256"
        },
        {
          "indexed": false,
          "internalType": "uint256",
          "name": "initalPrice",
          "type": "uint256"
        }
      ],
      "name": "AddLiquidity",
      "type": "event"
    },
    {
      "anonymous": false,
      "inputs": [
        {
          "indexed": true,
          "internalType": "address",
          "name": "owner",
          "type": "address"
        },
        {
          "indexed": true,
          "internalType": "address",
          "name": "approved",
          "type": "address"
        },
        {
          "indexed": true,
          "internalType": "uint256",
          "name": "tokenId",
          "type": "uint256"
        }
      ],
      "name": "Approval",
      "type": "event"
    },
    {
      "anonymous": false,
      "inputs": [
        {
          "indexed": true,
          "internalType": "address",
          "name": "owner",
          "type": "address"
        },
        {
          "indexed": true,
          "internalType": "address",
          "name": "operator",
          "type": "address"
        },
        {
          "indexed": false,
          "internalType": "bool",
          "name": "approved",
          "type": "bool"
        }
      ],
      "name": "ApprovalForAll",
      "type": "event"
    },
    {
      "anonymous": false,
      "inputs": [
        {
          "indexed": true,
          "internalType": "address",
          "name": "user",
          "type": "address"
        },
        {
          "indexed": false,
          "internalType": "uint256[]",
          "name": "nftIds",
          "type": "uint256[]"
        },
        {
          "indexed": false,
          "internalType": "uint256",
          "name": "price",
          "type": "uint256"
        }
      ],
      "name": "Buy",
      "type": "event"
    },
    {
      "anonymous": false,
      "inputs": [
        {
          "indexed": true,
          "internalType": "address",
          "name": "previousOwner",
          "type": "address"
        },
        {
          "indexed": true,
          "internalType": "address",
          "name": "newOwner",
          "type": "address"
        }
      ],
      "name": "OwnershipTransferred",
      "type": "event"
    },
    {
      "anonymous": false,
      "inputs": [
        {
          "indexed": true,
          "internalType": "address",
          "name": "user",
          "type": "address"
        },
        {
          "indexed": true,
          "internalType": "uint256",
          "name": "id",
          "type": "uint256"
        }
      ],
      "name": "RemoveLiquidity",
      "type": "event"
    },
    {
      "anonymous": false,
      "inputs": [
        {
          "indexed": true,
          "internalType": "address",
          "name": "user",
          "type": "address"
        },
        {
          "indexed": false,
          "internalType": "uint256[]",
          "name": "nftIds",
          "type": "uint256[]"
        },
        {
          "indexed": false,
          "internalType": "uint256",
          "name": "price",
          "type": "uint256"
        }
      ],
      "name": "Sell",
      "type": "event"
    },
    {
      "anonymous": false,
      "inputs": [
        {
          "indexed": true,
          "internalType": "address",
          "name": "from",
          "type": "address"
        },
        {
          "indexed": true,
          "internalType": "address",
          "name": "to",
          "type": "address"
        },
        {
          "indexed": true,
          "internalType": "uint256",
          "name": "tokenId",
          "type": "uint256"
        }
      ],
      "name": "Transfer",
      "type": "event"
    },
    {
      "inputs": [
        {
          "internalType": "uint256",
          "name": "tokenAmount",
          "type": "uint256"
        },
        {
          "internalType": "uint256[]",
          "name": "nftIds",
          "type": "uint256[]"
        },
        {
          "internalType": "address",
          "name": "curve",
          "type": "address"
        },
        {
          "internalType": "uint256",
          "name": "delta",
          "type": "uint256"
        },
        {
          "internalType": "uint256",
          "name": "initialPrice",
          "type": "uint256"
        }
      ],
      "name": "addLiquidity",
      "outputs": [],
      "stateMutability": "nonpayable",
      "type": "function"
    },
    {
      "inputs": [
        {
          "internalType": "address",
          "name": "to",
          "type": "address"
        },
        {
          "internalType": "uint256",
          "name": "tokenId",
          "type": "uint256"
        }
      ],
      "name": "approve",
      "outputs": [],
      "stateMutability": "nonpayable",
      "type": "function"
    },
    {
      "inputs": [
        {
          "internalType": "address",
          "name": "owner",
          "type": "address"
        }
      ],
      "name": "balanceOf",
      "outputs": [
        {
          "internalType": "uint256",
          "name": "",
          "type": "uint256"
        }
      ],
      "stateMutability": "view",
      "type": "function"
    },
    {
      "inputs": [
        {
          "internalType": "uint256[]",
          "name": "nftIds",
          "type": "uint256[]"
        }
      ],
      "name": "buy",
      "outputs": [
        {
          "internalType": "uint256",
          "name": "",
          "type": "uint256"
        }
      ],
      "stateMutability": "nonpayable",
      "type": "function"
    },
    {
      "inputs": [
        {
          "internalType": "uint256",
          "name": "tokenId",
          "type": "uint256"
        }
      ],
      "name": "getApproved",
      "outputs": [
        {
          "internalType": "address",
          "name": "",
          "type": "address"
        }
      ],
      "stateMutability": "view",
      "type": "function"
    },
    {
      "inputs": [
        {
          "internalType": "uint256",
          "name": "lpId",
          "type": "uint256"
        }
      ],
      "name": "getLP",
      "outputs": [
        {
          "components": [
            {
              "internalType": "uint256[]",
              "name": "nftIds",
              "type": "uint256[]"
            },
            {
              "internalType": "uint256",
              "name": "tokenAmount",
              "type": "uint256"
            },
            {
              "internalType": "address",
              "name": "curve",
              "type": "address"
            },
            {
              "internalType": "uint256",
              "name": "delta",
              "type": "uint256"
            },
            {
              "internalType": "uint256",
              "name": "price",
              "type": "uint256"
            }
          ],
          "internalType": "struct DataTypes.LiquidityPair",
          "name": "",
          "type": "tuple"
        }
      ],
      "stateMutability": "view",
      "type": "function"
    },
    {
      "inputs": [],
      "name": "getNFT",
      "outputs": [
        {
          "internalType": "address",
          "name": "",
          "type": "address"
        }
      ],
      "stateMutability": "view",
      "type": "function"
    },
    {
      "inputs": [],
      "name": "getSwapFee",
      "outputs": [
        {
          "internalType": "uint256",
          "name": "",
          "type": "uint256"
        }
      ],
      "stateMutability": "view",
      "type": "function"
    },
    {
      "inputs": [],
      "name": "getToken",
      "outputs": [
        {
          "internalType": "address",
          "name": "",
          "type": "address"
        }
      ],
      "stateMutability": "view",
      "type": "function"
    },
    {
      "inputs": [
        {
          "internalType": "address",
          "name": "owner",
          "type": "address"
        },
        {
          "internalType": "address",
          "name": "operator",
          "type": "address"
        }
      ],
      "name": "isApprovedForAll",
      "outputs": [
        {
          "internalType": "bool",
          "name": "",
          "type": "bool"
        }
      ],
      "stateMutability": "view",
      "type": "function"
    },
    {
      "inputs": [],
      "name": "name",
      "outputs": [
        {
          "internalType": "string",
          "name": "",
          "type": "string"
        }
      ],
      "stateMutability": "view",
      "type": "function"
    },
    {
      "inputs": [
        {
          "internalType": "uint256",
          "name": "nftId",
          "type": "uint256"
        }
      ],
      "name": "nftToLp",
      "outputs": [
        {
          "internalType": "uint256",
          "name": "",
          "type": "uint256"
        }
      ],
      "stateMutability": "view",
      "type": "function"
    },
    {
      "inputs": [
        {
          "internalType": "address",
          "name": "",
          "type": "address"
        },
        {
          "internalType": "address",
          "name": "",
          "type": "address"
        },
        {
          "internalType": "uint256",
          "name": "",
          "type": "uint256"
        },
        {
          "internalType": "bytes",
          "name": "",
          "type": "bytes"
        }
      ],
      "name": "onERC721Received",
      "outputs": [
        {
          "internalType": "bytes4",
          "name": "",
          "type": "bytes4"
        }
      ],
      "stateMutability": "nonpayable",
      "type": "function"
    },
    {
      "inputs": [],
      "name": "owner",
      "outputs": [
        {
          "internalType": "address",
          "name": "",
          "type": "address"
        }
      ],
      "stateMutability": "view",
      "type": "function"
    },
    {
      "inputs": [
        {
          "internalType": "uint256",
          "name": "tokenId",
          "type": "uint256"
        }
      ],
      "name": "ownerOf",
      "outputs": [
        {
          "internalType": "address",
          "name": "",
          "type": "address"
        }
      ],
      "stateMutability": "view",
      "type": "function"
    },
    {
      "inputs": [
        {
          "internalType": "uint256",
          "name": "lpId",
          "type": "uint256"
        }
      ],
      "name": "removeLiquidity",
      "outputs": [],
      "stateMutability": "nonpayable",
      "type": "function"
    },
    {
      "inputs": [],
      "name": "renounceOwnership",
      "outputs": [],
      "stateMutability": "nonpayable",
      "type": "function"
    },
    {
      "inputs": [
        {
          "internalType": "address",
          "name": "from",
          "type": "address"
        },
        {
          "internalType": "address",
          "name": "to",
          "type": "address"
        },
        {
          "internalType": "uint256",
          "name": "tokenId",
          "type": "uint256"
        }
      ],
      "name": "safeTransferFrom",
      "outputs": [],
      "stateMutability": "nonpayable",
      "type": "function"
    },
    {
      "inputs": [
        {
          "internalType": "address",
          "name": "from",
          "type": "address"
        },
        {
          "internalType": "address",
          "name": "to",
          "type": "address"
        },
        {
          "internalType": "uint256",
          "name": "tokenId",
          "type": "uint256"
        },
        {
          "internalType": "bytes",
          "name": "data",
          "type": "bytes"
        }
      ],
      "name": "safeTransferFrom",
      "outputs": [],
      "stateMutability": "nonpayable",
      "type": "function"
    },
    {
      "inputs": [
        {
          "internalType": "uint256[]",
          "name": "nftIds",
          "type": "uint256[]"
        },
        {
          "internalType": "uint256[]",
          "name": "liquidityPairs",
          "type": "uint256[]"
        }
      ],
      "name": "sell",
      "outputs": [
        {
          "internalType": "uint256",
          "name": "",
          "type": "uint256"
        }
      ],
      "stateMutability": "nonpayable",
      "type": "function"
    },
    {
      "inputs": [
        {
          "internalType": "address",
          "name": "operator",
          "type": "address"
        },
        {
          "internalType": "bool",
          "name": "approved",
          "type": "bool"
        }
      ],
      "name": "setApprovalForAll",
      "outputs": [],
      "stateMutability": "nonpayable",
      "type": "function"
    },
    {
      "inputs": [
        {
          "internalType": "uint256",
          "name": "newSwapFee",
          "type": "uint256"
        }
      ],
      "name": "setSwapFee",
      "outputs": [],
      "stateMutability": "nonpayable",
      "type": "function"
    },
    {
      "inputs": [
        {
          "internalType": "bytes4",
          "name": "interfaceId",
          "type": "bytes4"
        }
      ],
      "name": "supportsInterface",
      "outputs": [
        {
          "internalType": "bool",
          "name": "",
          "type": "bool"
        }
      ],
      "stateMutability": "view",
      "type": "function"
    },
    {
      "inputs": [],
      "name": "symbol",
      "outputs": [
        {
          "internalType": "string",
          "name": "",
          "type": "string"
        }
      ],
      "stateMutability": "view",
      "type": "function"
    },
    {
      "inputs": [
        {
          "internalType": "uint256",
          "name": "index",
          "type": "uint256"
        }
      ],
      "name": "tokenByIndex",
      "outputs": [
        {
          "internalType": "uint256",
          "name": "",
          "type": "uint256"
        }
      ],
      "stateMutability": "view",
      "type": "function"
    },
    {
      "inputs": [
        {
          "internalType": "address",
          "name": "owner",
          "type": "address"
        },
        {
          "internalType": "uint256",
          "name": "index",
          "type": "uint256"
        }
      ],
      "name": "tokenOfOwnerByIndex",
      "outputs": [
        {
          "internalType": "uint256",
          "name": "",
          "type": "uint256"
        }
      ],
      "stateMutability": "view",
      "type": "function"
    },
    {
      "inputs": [
        {
          "internalType": "uint256",
          "name": "tokenId",
          "type": "uint256"
        }
      ],
      "name": "tokenURI",
      "outputs": [
        {
          "internalType": "string",
          "name": "",
          "type": "string"
        }
      ],
      "stateMutability": "view",
      "type": "function"
    },
    {
      "inputs": [],
      "name": "totalSupply",
      "outputs": [
        {
          "internalType": "uint256",
          "name": "",
          "type": "uint256"
        }
      ],
      "stateMutability": "view",
      "type": "function"
    },
    {
      "inputs": [
        {
          "internalType": "address",
          "name": "from",
          "type": "address"
        },
        {
          "internalType": "address",
          "name": "to",
          "type": "address"
        },
        {
          "internalType": "uint256",
          "name": "tokenId",
          "type": "uint256"
        }
      ],
      "name": "transferFrom",
      "outputs": [],
      "stateMutability": "nonpayable",
      "type": "function"
    },
    {
      "inputs": [
        {
          "internalType": "address",
          "name": "newOwner",
          "type": "address"
        }
      ],
      "name": "transferOwnership",
      "outputs": [],
      "stateMutability": "nonpayable",
      "type": "function"
    }
  ],
  "bytecode": "0x60806040523480156200001157600080fd5b506040516200349e3803806200349e8339810160408190526200003491620002dd565b8181600062000044838262000436565b50600162000053828262000436565b505050620000706200006a620001a960201b60201c565b620001ad565b866001600160a01b031663ca1470ea6040518163ffffffff1660e01b8152600401602060405180830381865afa158015620000af573d6000803e3d6000fd5b505050506040513d601f19601f82011682018060405250810190620000d5919062000502565b6001600160a01b0316336001600160a01b0316146200014f5760405162461bcd60e51b815260206004820152602c60248201527f54726164696e6720506f6f6c206d75737420626520637265617465642074687260448201526b6f75676820466163746f727960a01b606482015260840160405180910390fd5b600b80546001600160a01b03808a166001600160a01b031992831617909255600c8054888416908316179055600d805492871692909116919091179055600e8390556200019c86620001ad565b5050505050505062000529565b3390565b600a80546001600160a01b038381166001600160a01b0319831681179093556040519116919082907f8be0079c531659141344cd1fd0a4f28419497f9722a3daafe3b4186f6b6457e090600090a35050565b6001600160a01b03811681146200021557600080fd5b50565b634e487b7160e01b600052604160045260246000fd5b600082601f8301126200024057600080fd5b81516001600160401b03808211156200025d576200025d62000218565b604051601f8301601f19908116603f0116810190828211818310171562000288576200028862000218565b81604052838152602092508683858801011115620002a557600080fd5b600091505b83821015620002c95785820183015181830184015290820190620002aa565b600093810190920192909252949350505050565b600080600080600080600060e0888a031215620002f957600080fd5b87516200030681620001ff565b60208901519097506200031981620001ff565b60408901519096506200032c81620001ff565b60608901519095506200033f81620001ff565b608089015160a08a015191955093506001600160401b03808211156200036457600080fd5b620003728b838c016200022e565b935060c08a01519150808211156200038957600080fd5b50620003988a828b016200022e565b91505092959891949750929550565b600181811c90821680620003bc57607f821691505b602082108103620003dd57634e487b7160e01b600052602260045260246000fd5b50919050565b601f8211156200043157600081815260208120601f850160051c810160208610156200040c5750805b601f850160051c820191505b818110156200042d5782815560010162000418565b5050505b505050565b81516001600160401b0381111562000452576200045262000218565b6200046a81620004638454620003a7565b84620003e3565b602080601f831160018114620004a25760008415620004895750858301515b600019600386901b1c1916600185901b1785556200042d565b600085815260208120601f198616915b82811015620004d357888601518255948401946001909101908401620004b2565b5085821015620004f25787850151600019600388901b60f8161c191681555b5050505050600190811b01905550565b6000602082840312156200051557600080fd5b81516200052281620001ff565b9392505050565b612f6580620005396000396000f3fe608060405234801561001057600080fd5b50600436106101da5760003560e01c806370a0823111610104578063b88d4fde116100a2578063d07fd39311610071578063d07fd39314610414578063d4cadf6814610427578063e985e9c51461042f578063f2fde38b1461046b57600080fd5b8063b88d4fde146103bb578063c243c72b146103ce578063c87b56dd146103e1578063cdd3f298146103f457600080fd5b80638da5cb5b116100de5780638da5cb5b1461037c57806395d89b411461038d5780639c8f9f2314610395578063a22cb465146103a857600080fd5b806370a0823114610350578063715018a61461036357806388a6360e1461036b57600080fd5b806323b872dd1161017c5780634f6ccce71161014b5780634f6ccce7146102f75780635460d8491461030a5780636352211e1461032a57806368660cd41461033d57600080fd5b806323b872dd146102ab5780632f745c59146102be57806334e19907146102d157806342842e0e146102e457600080fd5b8063095ea7b3116101b8578063095ea7b314610247578063150b7a021461025c57806318160ddd1461028857806321df0da71461029a57600080fd5b806301ffc9a7146101df57806306fdde0314610207578063081812fc1461021c575b600080fd5b6101f26101ed366004612737565b61047e565b60405190151581526020015b60405180910390f35b61020f61048f565b6040516101fe91906127a4565b61022f61022a3660046127b7565b610521565b6040516001600160a01b0390911681526020016101fe565b61025a6102553660046127ec565b610548565b005b61026f61026a36600461285d565b610662565b6040516001600160e01b031990911681526020016101fe565b6008545b6040519081526020016101fe565b600c546001600160a01b031661022f565b61025a6102b936600461291d565b610673565b61028c6102cc3660046127ec565b6106a4565b61025a6102df3660046127b7565b61073a565b61025a6102f236600461291d565b610747565b61028c6103053660046127b7565b610762565b61028c6103183660046127b7565b60009081526010602052604090205490565b61022f6103383660046127b7565b6107f5565b61025a61034b3660046129ce565b610855565b61028c61035e366004612a37565b610a79565b61025a610aff565b600d546001600160a01b031661022f565b600a546001600160a01b031661022f565b61020f610b13565b61025a6103a33660046127b7565b610b22565b61025a6103b6366004612a60565b610c8b565b61025a6103c936600461285d565b610c9a565b61028c6103dc366004612a97565b610cd2565b61020f6103ef3660046127b7565b6110bd565b6104076104023660046127b7565b611131565b6040516101fe9190612b07565b61028c610422366004612b5f565b6111da565b600e5461028c565b6101f261043d366004612bc3565b6001600160a01b03918216600090815260056020908152604080832093909416825291909152205460ff1690565b61025a610479366004612a37565b6115dc565b600061048982611655565b92915050565b60606000805461049e90612bf6565b80601f01602080910402602001604051908101604052809291908181526020018280546104ca90612bf6565b80156105175780601f106104ec57610100808354040283529160200191610517565b820191906000526020600020905b8154815290600101906020018083116104fa57829003601f168201915b5050505050905090565b600061052c8261167a565b506000908152600460205260409020546001600160a01b031690565b6000610553826107f5565b9050806001600160a01b0316836001600160a01b0316036105c55760405162461bcd60e51b815260206004820152602160248201527f4552433732313a20617070726f76616c20746f2063757272656e74206f776e656044820152603960f91b60648201526084015b60405180910390fd5b336001600160a01b03821614806105e157506105e1813361043d565b6106535760405162461bcd60e51b815260206004820152603d60248201527f4552433732313a20617070726f76652063616c6c6572206973206e6f7420746f60448201527f6b656e206f776e6572206f7220617070726f76656420666f7220616c6c00000060648201526084016105bc565b61065d83836116d9565b505050565b630a85bd0160e11b5b949350505050565b61067d3382611747565b6106995760405162461bcd60e51b81526004016105bc90612c30565b61065d8383836117c5565b60006106af83610a79565b82106107115760405162461bcd60e51b815260206004820152602b60248201527f455243373231456e756d657261626c653a206f776e657220696e646578206f7560448201526a74206f6620626f756e647360a81b60648201526084016105bc565b506001600160a01b03919091166000908152600660209081526040808320938352929052205490565b610742611936565b600e55565b61065d83838360405180602001604052806000815250610c9a565b600061076d60085490565b82106107d05760405162461bcd60e51b815260206004820152602c60248201527f455243373231456e756d657261626c653a20676c6f62616c20696e646578206f60448201526b7574206f6620626f756e647360a01b60648201526084016105bc565b600882815481106107e3576107e3612c7d565b90600052602060002001549050919050565b6000818152600260205260408120546001600160a01b0316806104895760405162461bcd60e51b8152602060048201526018602482015277115490cdcc8c4e881a5b9d985b1a59081d1bdad95b88125160421b60448201526064016105bc565b60005b845181101561094d57600d5485516001600160a01b03909116906342842e0e903390309089908690811061088e5761088e612c7d565b60200260200101516040518463ffffffff1660e01b81526004016108b493929190612c93565b600060405180830381600087803b1580156108ce57600080fd5b505af11580156108e2573d6000803e3d6000fd5b5050505060405180604001604052806011548152602001828152506010600087848151811061091357610913612c7d565b602090810291909101810151825281810192909252604001600020825181559101516001909101558061094581612ccd565b915050610858565b50600c54610966906001600160a01b0316333088611990565b6040805160a08101825285815260208082018890526001600160a01b0386168284015260608201859052608082018490526011546000908152600f82529290922081518051929391926109bc928492019061266b565b506020820151600182015560408201516002820180546001600160a01b0319166001600160a01b0390921691909117905560608201516003820155608090910151600490910155601154610a119033906119e8565b601154336001600160a01b03167f3b67bb924a0e01cd52df231e47e53b28799a0f34d0ea653d1778cf3969492c1e8688878787604051610a55959493929190612ce6565b60405180910390a360118054906000610a6d83612ccd565b91905055505050505050565b60006001600160a01b038216610ae35760405162461bcd60e51b815260206004820152602960248201527f4552433732313a2061646472657373207a65726f206973206e6f7420612076616044820152683634b21037bbb732b960b91b60648201526084016105bc565b506001600160a01b031660009081526003602052604090205490565b610b07611936565b610b116000611a02565b565b60606001805461049e90612bf6565b610b2b81611a54565b60005b6000828152600f6020526040902054811015610bec57600d546000838152600f6020526040902080546001600160a01b03909216916342842e0e91309133919086908110610b7e57610b7e612c7d565b90600052602060002001546040518463ffffffff1660e01b8152600401610ba793929190612c93565b600060405180830381600087803b158015610bc157600080fd5b505af1158015610bd5573d6000803e3d6000fd5b505050508080610be490612ccd565b915050610b2e565b506000818152600f6020526040902060010154600c54610c19916001600160a01b03909116903090611af7565b6000818152600f6020526040812090610c3282826126b6565b506000600182018190556002820180546001600160a01b0319169055600382018190556004909101819055604051829133917fdfdd120ded9b7afc0c23dd5310e93aaa3e1c3b9f75af9b805fab3030842439f29190a350565b610c96338383611b27565b5050565b610ca43383611747565b610cc05760405162461bcd60e51b81526004016105bc90612c30565b610ccc84848484611bf5565b50505050565b600080600080600080610ce36126d4565b60005b885181101561105557601060008a8381518110610d0557610d05612c7d565b60200260200101518152602001908152602001600020600001549350601060008a8381518110610d3757610d37612c7d565b60200260200101518152602001908152602001600020600101549250600f60008581526020019081526020016000206040518060a001604052908160008201805480602002602001604051908101604052809291908181526020018280548015610dc057602002820191906000526020600020905b815481526020019060010190808311610dac575b50505091835250506001820154602082015260028201546001600160a01b0390811660408084019190915260038401546060808501919091526004948501546080948501528582015193860151908601519151635d8b487160e11b81529485015260248401529294509091169063bb1690e290604401602060405180830381865afa158015610e53573d6000803e3d6000fd5b505050506040513d601f19601f82011682018060405250810190610e779190612d26565b955061271086600e54612710610e8d9190612d3f565b610e979190612d52565b610ea19190612d69565b6000858152600f6020526040902060048101889055805491965090610ec890600190612d8b565b81548110610ed857610ed8612c7d565b9060005260206000200154600f60008681526020019081526020016000206000018481548110610f0a57610f0a612c7d565b6000918252602080832090910192909255858152600f90915260409020805480610f3657610f36612d9e565b6001900381819060005260206000200160009055905584600f60008681526020019081526020016000206001016000828254610f729190612d3f565b90915550610f8290508588612d3f565b9650601060008a8381518110610f9a57610f9a612c7d565b6020908102919091018101518252810191909152604001600090812081815560010155600d5489516001600160a01b03909116906342842e0e90309033908d9086908110610fea57610fea612c7d565b60200260200101516040518463ffffffff1660e01b815260040161101093929190612c93565b600060405180830381600087803b15801561102a57600080fd5b505af115801561103e573d6000803e3d6000fd5b50505050808061104d90612ccd565b915050610ce6565b50600c5461106e906001600160a01b0316333089611990565b336001600160a01b03167f0306912acbf130bc61cce94222a394a64e258433196a3d3679a9bbfb8973f77389886040516110a9929190612db4565b60405180910390a250939695505050505050565b60606110c88261167a565b60006110df60408051602081019091526000815290565b905060008151116110ff576040518060200160405280600081525061112a565b8061110984611c28565b60405160200161111a929190612dd6565b6040516020818303038152906040525b9392505050565b6111396126d4565b6000828152600f60209081526040918290208251815460c09381028201840190945260a08101848152909391928492849184018282801561119957602002820191906000526020600020905b815481526020019060010190808311611185575b50505091835250506001820154602082015260028201546001600160a01b031660408201526003820154606082015260049091015460809091015292915050565b600081518351146112445760405162461bcd60e51b815260206004820152602e60248201527f4e46547320616e64204c6971756964697479205061697273206d75737420686160448201526d0ecca40e6c2daca40d8cadccee8d60931b60648201526084016105bc565b6000806000806112526126d4565b60005b885181101561157557600d5489516001600160a01b03909116906342842e0e90339030908d908690811061128b5761128b612c7d565b60200260200101516040518463ffffffff1660e01b81526004016112b193929190612c93565b600060405180830381600087803b1580156112cb57600080fd5b505af11580156112df573d6000803e3d6000fd5b50505050601060008a83815181106112f9576112f9612c7d565b60200260200101518152602001908152602001600020600001549350601060008a838151811061132b5761132b612c7d565b60200260200101518152602001908152602001600020600101549250600f60008581526020019081526020016000206040518060a0016040529081600082018054806020026020016040519081016040528092919081815260200182805480156113b457602002820191906000526020600020905b8154815260200190600101908083116113a0575b50505091835250506001820154602082015260028201546001600160a01b0316604082015260038201546060820152600490910154608091820152810151600e54919350612710916114069083612d8b565b6114109190612d52565b61141a9190612d69565b94506114268587612d3f565b9550600f60008a838151811061143e5761143e612c7d565b6020026020010151815260200190815260200160002060000189828151811061146957611469612c7d565b602090810291909101810151825460018181018555600094855283852090910191909155868352600f909152604082200180548792906114aa908490612d8b565b9091555050604082810151608084015160608501519251633698f96560e11b8152600481019190915260248101929092526001600160a01b031690636d31f2ca90604401602060405180830381865afa15801561150b573d6000803e3d6000fd5b505050506040513d601f19601f8201168201806040525081019061152f9190612d26565b600f60008b848151811061154557611545612c7d565b6020026020010151815260200190815260200160002060040181905550808061156d90612ccd565b915050611255565b50600c5461158d906001600160a01b03163087611af7565b336001600160a01b03167feb3c528adebc70d317bef09706905761642981ebf9def9aafdc40f404e49346a89876040516115c8929190612db4565b60405180910390a250929695505050505050565b6115e4611936565b6001600160a01b0381166116495760405162461bcd60e51b815260206004820152602660248201527f4f776e61626c653a206e6577206f776e657220697320746865207a65726f206160448201526564647265737360d01b60648201526084016105bc565b61165281611a02565b50565b60006001600160e01b0319821663780e9d6360e01b1480610489575061048982611cbb565b6000818152600260205260409020546001600160a01b03166116525760405162461bcd60e51b8152602060048201526018602482015277115490cdcc8c4e881a5b9d985b1a59081d1bdad95b88125160421b60448201526064016105bc565b600081815260046020526040902080546001600160a01b0319166001600160a01b038416908117909155819061170e826107f5565b6001600160a01b03167f8c5be1e5ebec7d5bd14f71427d1e84f3dd0314c0f7b2291e5b200ac8c7c3b92560405160405180910390a45050565b600080611753836107f5565b9050806001600160a01b0316846001600160a01b0316148061179a57506001600160a01b0380821660009081526005602090815260408083209388168352929052205460ff165b8061066b5750836001600160a01b03166117b384610521565b6001600160a01b031614949350505050565b826001600160a01b03166117d8826107f5565b6001600160a01b0316146117fe5760405162461bcd60e51b81526004016105bc90612e05565b6001600160a01b0382166118605760405162461bcd60e51b8152602060048201526024808201527f4552433732313a207472616e7366657220746f20746865207a65726f206164646044820152637265737360e01b60648201526084016105bc565b61186d8383836001611d0b565b826001600160a01b0316611880826107f5565b6001600160a01b0316146118a65760405162461bcd60e51b81526004016105bc90612e05565b600081815260046020908152604080832080546001600160a01b03199081169091556001600160a01b0387811680865260038552838620805460001901905590871680865283862080546001019055868652600290945282852080549092168417909155905184937fddf252ad1be2c89b69c2b068fc378daa952ba7f163c4a11628f55a4df523b3ef91a4505050565b600a546001600160a01b03163314610b115760405162461bcd60e51b815260206004820181905260248201527f4f776e61626c653a2063616c6c6572206973206e6f7420746865206f776e657260448201526064016105bc565b610ccc846323b872dd60e01b8585856040516024016119b193929190612c93565b60408051601f198184030181529190526020810180516001600160e01b03166001600160e01b031990931692909217909152611d17565b610c96828260405180602001604052806000815250611de9565b600a80546001600160a01b038381166001600160a01b0319831681179093556040519116919082907f8be0079c531659141344cd1fd0a4f28419497f9722a3daafe3b4186f6b6457e090600090a35050565b6000611a5f826107f5565b9050611a6f816000846001611d0b565b611a78826107f5565b600083815260046020908152604080832080546001600160a01b03199081169091556001600160a01b0385168085526003845282852080546000190190558785526002909352818420805490911690555192935084927fddf252ad1be2c89b69c2b068fc378daa952ba7f163c4a11628f55a4df523b3ef908390a45050565b6040516001600160a01b03831660248201526044810182905261065d90849063a9059cbb60e01b906064016119b1565b816001600160a01b0316836001600160a01b031603611b885760405162461bcd60e51b815260206004820152601960248201527f4552433732313a20617070726f766520746f2063616c6c65720000000000000060448201526064016105bc565b6001600160a01b03838116600081815260056020908152604080832094871680845294825291829020805460ff191686151590811790915591519182527f17307eab39ab6107e8899845ad3d59bd9653f200f220920489ca2b5937696c31910160405180910390a3505050565b611c008484846117c5565b611c0c84848484611e1c565b610ccc5760405162461bcd60e51b81526004016105bc90612e4a565b60606000611c3583611f1a565b600101905060008167ffffffffffffffff811115611c5557611c55612816565b6040519080825280601f01601f191660200182016040528015611c7f576020820181803683370190505b5090508181016020015b600019016f181899199a1a9b1b9c1cb0b131b232b360811b600a86061a8153600a8504945084611c8957509392505050565b60006001600160e01b031982166380ac58cd60e01b1480611cec57506001600160e01b03198216635b5e139f60e01b145b8061048957506301ffc9a760e01b6001600160e01b0319831614610489565b610ccc84848484611ff2565b6000611d6c826040518060400160405280602081526020017f5361666545524332303a206c6f772d6c6576656c2063616c6c206661696c6564815250856001600160a01b03166121329092919063ffffffff16565b80519091501561065d5780806020019051810190611d8a9190612e9c565b61065d5760405162461bcd60e51b815260206004820152602a60248201527f5361666545524332303a204552433230206f7065726174696f6e20646964206e6044820152691bdd081cdd58d8d9595960b21b60648201526084016105bc565b611df38383612141565b611e006000848484611e1c565b61065d5760405162461bcd60e51b81526004016105bc90612e4a565b60006001600160a01b0384163b15611f1257604051630a85bd0160e11b81526001600160a01b0385169063150b7a0290611e60903390899088908890600401612eb9565b6020604051808303816000875af1925050508015611e9b575060408051601f3d908101601f19168201909252611e9891810190612ef6565b60015b611ef8573d808015611ec9576040519150601f19603f3d011682016040523d82523d6000602084013e611ece565b606091505b508051600003611ef05760405162461bcd60e51b81526004016105bc90612e4a565b805181602001fd5b6001600160e01b031916630a85bd0160e11b14905061066b565b50600161066b565b60008072184f03e93ff9f4daa797ed6e38ed64bf6a1f0160401b8310611f595772184f03e93ff9f4daa797ed6e38ed64bf6a1f0160401b830492506040015b6d04ee2d6d415b85acef81000000008310611f85576d04ee2d6d415b85acef8100000000830492506020015b662386f26fc100008310611fa357662386f26fc10000830492506010015b6305f5e1008310611fbb576305f5e100830492506008015b6127108310611fcf57612710830492506004015b60648310611fe1576064830492506002015b600a83106104895760010192915050565b611ffe848484846122da565b600181111561206d5760405162461bcd60e51b815260206004820152603560248201527f455243373231456e756d657261626c653a20636f6e7365637574697665207472604482015274185b9cd9995c9cc81b9bdd081cdd5c1c1bdc9d1959605a1b60648201526084016105bc565b816001600160a01b0385166120c9576120c481600880546000838152600960205260408120829055600182018355919091527ff3f7a9fe364faab93b216da50a3214154f22a0a2b415b23a84c8169e8b636ee30155565b6120ec565b836001600160a01b0316856001600160a01b0316146120ec576120ec8582612362565b6001600160a01b03841661210857612103816123ff565b61212b565b846001600160a01b0316846001600160a01b03161461212b5761212b84826124ae565b5050505050565b606061066b84846000856124f2565b6001600160a01b0382166121975760405162461bcd60e51b815260206004820181905260248201527f4552433732313a206d696e7420746f20746865207a65726f206164647265737360448201526064016105bc565b6000818152600260205260409020546001600160a01b0316156121fc5760405162461bcd60e51b815260206004820152601c60248201527f4552433732313a20746f6b656e20616c7265616479206d696e7465640000000060448201526064016105bc565b61220a600083836001611d0b565b6000818152600260205260409020546001600160a01b03161561226f5760405162461bcd60e51b815260206004820152601c60248201527f4552433732313a20746f6b656e20616c7265616479206d696e7465640000000060448201526064016105bc565b6001600160a01b038216600081815260036020908152604080832080546001019055848352600290915280822080546001600160a01b0319168417905551839291907fddf252ad1be2c89b69c2b068fc378daa952ba7f163c4a11628f55a4df523b3ef908290a45050565b6001811115610ccc576001600160a01b03841615612320576001600160a01b0384166000908152600360205260408120805483929061231a908490612d8b565b90915550505b6001600160a01b03831615610ccc576001600160a01b03831660009081526003602052604081208054839290612357908490612d3f565b909155505050505050565b6000600161236f84610a79565b6123799190612d8b565b6000838152600760205260409020549091508082146123cc576001600160a01b03841660009081526006602090815260408083208584528252808320548484528184208190558352600790915290208190555b5060009182526007602090815260408084208490556001600160a01b039094168352600681528383209183525290812055565b60085460009061241190600190612d8b565b6000838152600960205260408120546008805493945090928490811061243957612439612c7d565b90600052602060002001549050806008838154811061245a5761245a612c7d565b600091825260208083209091019290925582815260099091526040808220849055858252812055600880548061249257612492612d9e565b6001900381819060005260206000200160009055905550505050565b60006124b983610a79565b6001600160a01b039093166000908152600660209081526040808320868452825280832085905593825260079052919091209190915550565b6060824710156125535760405162461bcd60e51b815260206004820152602660248201527f416464726573733a20696e73756666696369656e742062616c616e636520666f6044820152651c8818d85b1b60d21b60648201526084016105bc565b600080866001600160a01b0316858760405161256f9190612f13565b60006040518083038185875af1925050503d80600081146125ac576040519150601f19603f3d011682016040523d82523d6000602084013e6125b1565b606091505b50915091506125c2878383876125cd565b979650505050505050565b6060831561263c578251600003612635576001600160a01b0385163b6126355760405162461bcd60e51b815260206004820152601d60248201527f416464726573733a2063616c6c20746f206e6f6e2d636f6e747261637400000060448201526064016105bc565b508161066b565b61066b83838151156126515781518083602001fd5b8060405162461bcd60e51b81526004016105bc91906127a4565b8280548282559060005260206000209081019282156126a6579160200282015b828111156126a657825182559160200191906001019061268b565b506126b292915061270c565b5090565b5080546000825590600052602060002090810190611652919061270c565b6040518060a00160405280606081526020016000815260200160006001600160a01b0316815260200160008152602001600081525090565b5b808211156126b2576000815560010161270d565b6001600160e01b03198116811461165257600080fd5b60006020828403121561274957600080fd5b813561112a81612721565b60005b8381101561276f578181015183820152602001612757565b50506000910152565b60008151808452612790816020860160208601612754565b601f01601f19169290920160200192915050565b60208152600061112a6020830184612778565b6000602082840312156127c957600080fd5b5035919050565b80356001600160a01b03811681146127e757600080fd5b919050565b600080604083850312156127ff57600080fd5b612808836127d0565b946020939093013593505050565b634e487b7160e01b600052604160045260246000fd5b604051601f8201601f1916810167ffffffffffffffff8111828210171561285557612855612816565b604052919050565b6000806000806080858703121561287357600080fd5b61287c856127d0565b9350602061288b8187016127d0565b935060408601359250606086013567ffffffffffffffff808211156128af57600080fd5b818801915088601f8301126128c357600080fd5b8135818111156128d5576128d5612816565b6128e7601f8201601f1916850161282c565b915080825289848285010111156128fd57600080fd5b808484018584013760008482840101525080935050505092959194509250565b60008060006060848603121561293257600080fd5b61293b846127d0565b9250612949602085016127d0565b9150604084013590509250925092565b600082601f83011261296a57600080fd5b8135602067ffffffffffffffff82111561298657612986612816565b8160051b61299582820161282c565b92835284810182019282810190878511156129af57600080fd5b83870192505b848310156125c2578235825291830191908301906129b5565b600080600080600060a086880312156129e657600080fd5b85359450602086013567ffffffffffffffff811115612a0457600080fd5b612a1088828901612959565b945050612a1f604087016127d0565b94979396509394606081013594506080013592915050565b600060208284031215612a4957600080fd5b61112a826127d0565b801515811461165257600080fd5b60008060408385031215612a7357600080fd5b612a7c836127d0565b91506020830135612a8c81612a52565b809150509250929050565b600060208284031215612aa957600080fd5b813567ffffffffffffffff811115612ac057600080fd5b61066b84828501612959565b600081518084526020808501945080840160005b83811015612afc57815187529582019590820190600101612ae0565b509495945050505050565b602081526000825160a06020840152612b2360c0840182612acc565b90506020840151604084015260018060a01b03604085015116606084015260608401516080840152608084015160a08401528091505092915050565b60008060408385031215612b7257600080fd5b823567ffffffffffffffff80821115612b8a57600080fd5b612b9686838701612959565b93506020850135915080821115612bac57600080fd5b50612bb985828601612959565b9150509250929050565b60008060408385031215612bd657600080fd5b612bdf836127d0565b9150612bed602084016127d0565b90509250929050565b600181811c90821680612c0a57607f821691505b602082108103612c2a57634e487b7160e01b600052602260045260246000fd5b50919050565b6020808252602d908201527f4552433732313a2063616c6c6572206973206e6f7420746f6b656e206f776e6560408201526c1c881bdc88185c1c1c9bdd9959609a1b606082015260800190565b634e487b7160e01b600052603260045260246000fd5b6001600160a01b039384168152919092166020820152604081019190915260600190565b634e487b7160e01b600052601160045260246000fd5b600060018201612cdf57612cdf612cb7565b5060010190565b60a081526000612cf960a0830188612acc565b6020830196909652506001600160a01b039390931660408401526060830191909152608090910152919050565b600060208284031215612d3857600080fd5b5051919050565b8082018082111561048957610489612cb7565b808202811582820484141761048957610489612cb7565b600082612d8657634e487b7160e01b600052601260045260246000fd5b500490565b8181038181111561048957610489612cb7565b634e487b7160e01b600052603160045260246000fd5b604081526000612dc76040830185612acc565b90508260208301529392505050565b60008351612de8818460208801612754565b835190830190612dfc818360208801612754565b01949350505050565b60208082526025908201527f4552433732313a207472616e736665722066726f6d20696e636f72726563742060408201526437bbb732b960d91b606082015260800190565b60208082526032908201527f4552433732313a207472616e7366657220746f206e6f6e20455243373231526560408201527131b2b4bb32b91034b6b83632b6b2b73a32b960711b606082015260800190565b600060208284031215612eae57600080fd5b815161112a81612a52565b6001600160a01b0385811682528416602082015260408101839052608060608201819052600090612eec90830184612778565b9695505050505050565b600060208284031215612f0857600080fd5b815161112a81612721565b60008251612f25818460208701612754565b919091019291505056fea26469706673582212201247ca2e08e324aef5d272fc5cdacfa806628b5cec2aef3cebceb77558064d8d64736f6c63430008110033",
  "linkReferences": {},
  "deployedLinkReferences": {}
}